:020000040800F2
:1000000000050020050100088B300008952000083D
:1000100089300008A9070008E53300080000000047
:100020000000000000000000000000008F30000809
:10003000AB070008000000008D30000831310008D7
:100040001F0100081F0100081F0100081F01000810
:100050001F0100081F0100081F0100081F01000800
:100060001F0100081F0100081F0100081F010008F0
:100070001F0100081F0100081F0100081F010008E0
:100080001F0100081F0100081F0100081F010008D0
:100090001F0100081F0100081F0100081F010008C0
:1000A0001F0100081F0100081F0100081F010008B0
:1000B0001F0100081F0100081F010008A5200008FB
:1000C000992000081F0100081F0100081F010008F7
:1000D0001F0100081F010008CD330008D9330008B4
:1000E0001F0100081F0100081F010008DFF810D0E1
:1000F00000F048FB00480047ED3C0008AFF30080EB
:10010000000500200648804706480047FEE7FEE756
:10011000FEE7FEE7FEE7FEE7FEE7FEE7FEE7FEE7B7
:10012000B7310008ED000008202A04DB203A21FA4C
:1001300002F00021704721FA02F3D040C2F1200200
:100140009140084319467047D2B201E000F8012BF4
:10015000491EFBD270470022F6E710B513460A4647
:1001600004461946FFF7F0FF204610BD2DE9FE4F6B
:10017000804681EA0300C00F0C46009021F0004148
:1001800023F00045B8EB0200A94105D240462146C4
:1001900090461C460B46024623F00040104347D0D1
:1001A000270DC7F30A00C3F30A510290401A0190C9
:1001B00040286BDAC3F3130040F4801B009892468A
:1001C00020B10023D2EB030A63EB0B0B01985946D5
:1001D000C0F14002504600F07DF906460D465046FB
:1001E0005946019A00F085F910EB0800614100249E
:1001F00087EA115284EAE7731A4340D0009A62B347
:10020000019A012A4FEA075215DC001B61EB02013B
:100210004FF0004202EA0752CDE90042001C41F5CE
:10022000801132462B4600F0BCF903B0BDE8F08FD8
:1002300040462146F9E7001B61EB0201001C41F535
:10024000801300185B412018A2F5001747EB03014B
:1002500040EAD570B6196D4111E06D084FEA3606D7
:1002600045EAC0754FEA0752001B61EB0201001C12
:1002700041F5801149084FEA3000001951413246DA
:100280002B4603B0BDE8F04F00F07CB90098012286
:1002900040000023D0EB020263EBE073009821469C
:1002A0004FEAE074B8EB000061EB0401E9E783F08A
:1002B00000435BE781F0004158E72DE9F04D81EA0A
:1002C000030404F0004B21F0004514464FF0000AEF
:1002D00023F0004150EA050220D054EA01021DD06B
:1002E000C5F30A570246C5F31303C1F31300C1F364
:1002F0000A5640F4801543F48013A7EB0608101B40
:10030000D64608F2FD3873EB050002D308F1010868
:1003100001E092185B41B8F1000F03DA00200146BA
:10032000BDE8F08D00204FF48011064684460EE0B3
:10033000171B73EB050705D3121B63EB050306437D
:100340004CEA010C49084FEA300092185B4150EA30
:100350000107EDD152EA030012D082EA040083EAD9
:100360000501084305D0101BAB4106D20122002332
:1003700006E000224FF0004302E06FF0010253104C
:100380001AEB06004CEB085110EB0A0041EB0B0195
:10039000BDE8F04D00F0F6B870B521F0004303431E
:1003A0000CD0C1F30A550024D5EB040564EB04031B
:1003B000D617AD1AB34102DB0020014670BD2018EC
:1003C00041EB025170BD0EB5C10F80EAE0700844E8
:1003D000CA07002140F233438DE80E000A460B465F
:1003E00000F0DFF803B000BD00F0004230F0004044
:1003F0000AD0C10D01F56071C0F3160042EA015147
:10040000C20840071143704700200146704701F0C1
:10041000004330B421F0004150EA010206D00A0D39
:10042000A2F56072C1F31301002A02DC30BC002087
:100430007047440F44EAC104C100E01830BC00EB2F
:10044000C25000F068B830B50B46014600202022AB
:10045000012409E021FA02F59D4205D303FA02F5D1
:10046000491B04FA02F52844151EA2F10102F1DC31
:1004700030BD2DE9F05F0546002092469B46884638
:100480000646814640241BE0284641464746224610
:10049000FFF74AFE53465A46C01A914110D31146FF
:1004A0001846224600F016F82D1A67EB01084F4651
:1004B00022460120002100F00DF817EB00094E4103
:1004C000201EA4F10104DFDC484631462A4643469B
:1004D000BDE8F09F202A04DB203A00FA02F1002058
:1004E00070479140C2F1200320FA03F31943904072
:1004F0007047202A06DBCB17203A41FA02F043EA84
:10050000E07306E041FA02F3D040C2F120029140CC
:100510000843194670470029A8BF7047401C49008E
:1005200008BF20F00100704710B4B0FA80FC00FA58
:100530000CF050EA010404BF10BC704749B1CCF183
:10054000200421FA04F411FA0CF118BF012121430F
:100550000843A3EB0C01CB1D4FEA00614FEA1020CA
:1005600042BF002010BC704700EBC350104400296C
:10057000A4BF10BC7047401C490008BF20F0010018
:1005800010BC704710B5141E73F1000408DA401C4B
:1005900041F1000192185B411A4301D120F00100A2
:1005A00010BD2DE9F04D92469B4611B1B1FA81F292
:1005B00002E0B0FA80F220329046FFF78BFF04464B
:1005C0000F4640EA0A0041EA0B0153465A460843E7
:1005D00013D0114653EA010019D0C8F14002504629
:1005E000FFF7A2FD05460E46504659464246FFF724
:1005F00071FF084305D0012004E020463946BDE8DC
:10060000F08D0020054346EAE0762C4337430A98F4
:100610006305E40AA0EB08000022FD0A44EA4754FF
:100620000A3002D500200146E9E7010510196941A9
:10063000DDE9084500196941BDE8F04DA2E72DE963
:10064000FE4F81EA030404F0004421F000410094CD
:100650004FF0000B23F0004350EA01045ED052EA51
:1006600003045BD0C3F30A54C1F30A552C44A4F22B
:10067000F3340194A0FB0254C1F3130141F480113F
:10068000C3F3130343F4801301FB024400FB034E46
:10069000840A970A44EA815447EA8357A4FB07680F
:1006A00002958D0A05FB07854FEA932C04FB0C5439
:1006B0002705029D4FEA065847EA1637B5EB0805AD
:1006C0006EEB070C870E920E47EA811742EA8312FF
:1006D000A7FB0201B6EB0B0164EB00042B0D43EA10
:1006E0000C335E1844EB1C50DA465146E7FB02011E
:1006F000C5F313044FEA0B3343EA14534FEA0432B1
:10070000019C43EA0603A4F10C040294009CCDE989
:1007100000B4FFF746FF03B0BDE8F08F00200146AC
:10072000F9E7C1F30A52C1F3130140F2FF3341F478
:1007300080119A4202DA00200146704740F23343AA
:100740009A42A2F2334202DC5242FFF7EDBCFFF7BD
:10075000C1BE000030B5041E71F1000404DB4FF08F
:100760000044404264EB0101141E73F1000405DBF8
:100770001C464FF00043524263EB0403994208BF0A
:10078000904230BD064C074D06E0E06840F00103A2
:1007900094E8070098471034AC42F6D3FFF7AAFC60
:1007A000983E0008B83E0008FEE7704772B6FEE7C4
:1007B00010B590F821100022022905D00421816390
:1007C00080F82020012010BD01680B6823F00E0383
:1007D0000B6001680B6823F001030B6090F8403058
:1007E000C46B012101FA03F3636080F8211080F8E3
:1007F0002020104610BD000010B590F821100024F4
:10080000022903D00421816301243DE001680A68C4
:1008100022F00E020A6001680A6822F001020A60F2
:100820001A4A0168914201D1012121E0174A14328C
:10083000914201D110211BE0144A2832914201D18A
:10084000891515E0114A3C32914201D189140FE01B
:100850000E4A5032914202D14FF4803108E00B4AE7
:100860006432914202D14FF4801101E04FF0807167
:10087000064A083A5160012180F82110002180F8D1
:100880002010416B01B18847204610BD080002408E
:1008900090F821007047000070B5044600F07CF924
:1008A0000546601C02D004480078044400F074F946
:1008B000401BA042FAD370BD000000202DE9F04398
:1008C0000023374F0F2566E001229A400A4060D08E
:1008D00023F00304E619D6F808809C074FEA147C3D
:1008E00005FA0CF909EA0804DFF8B880404502D19E
:1008F0004FF0000816E0DFF8B080404502D14FF01D
:1009000001080FE0DFF8A480404502D14FF0020853
:1009100008E0DFF89C80404502D14FF0030801E079
:100920004FF0040808FA0CF8A04515D1D6F808C015
:100930002CEA090CC6F808C01E4E34689443346093
:10094000341D266896432660241D2668964326603B
:10095000241D266896432660FF2A01D8064601E03A
:1009600000F104064FEA830401D9A4F12004D6F86B
:1009700000C005FA04F82CEA080C4FF0040808FA45
:1009800004F84CEA080CC6F800C0C46824EA020463
:10099000C46003F1010331FA03F295D1BDE8F0839D
:1009A0000000014000080140000C0140001001401F
:1009B00000140140000401402DE9F84FDFF8B89120
:1009C000002409F1040A0AF1040B23460F270BF156
:1009D000040EC9E00125A5402A40AA427DD1674EF8
:1009E000D1F804C0ACEB0608B44532D014DCBCF13D
:1009F000030F3AD009DCBCF1000F2AD0BCF1010F83
:100A00001CD0BCF1020F31D11DE0BCF1110F17D089
:100A1000BCF1120F2AD119E0B8F5881F19D006DCF5
:100A2000B8F5803F15D0B8F5801F1FD111E0B8F59B
:100A3000001F0ED0B8F5041F18D10AE0CB6815E0EE
:100A4000CB681B1D12E0CB6808330FE0CB680C337A
:100A50000CE08B682BB1012B4FF0080303D04561EC
:100A600004E0042302E0056100E00023FF2A01D82E
:100A7000064601E000F104064FEA840501D9A5F11C
:100A80002005D6F8008007FA05FC28EA0C0803FACE
:100A900005F548EA0508C6F800804D68ED0062D506
:100AA000374DAE6946F00106AE61AD6924F003062C
:100AB00005F001050095334D06EB050CDCF80850F8
:100AC000A607360F07FA06F825EA0805DFF8B8800A
:100AD000404503D14FF0000817E044E0DFF8AC8058
:100AE000404502D14FF001080FE0DFF8A4804045F7
:100AF00002D14FF0020808E0DFF89880404502D1AB
:100B00004FF0030801E04FF0040808FA06F848EA3D
:100B10000508CCF808804D68D9F80060ED034D4613
:100B200001D5164300E096432E604D68DAF8006068
:100B3000AD03554601D5164300E096432E604D683F
:100B4000DBF80060ED025D4601D5164300E09643F8
:100B50002E604D68DEF80060AD02754601D5164383
:100B600000E096432E60641C0D682A46E5407FF441
:100B700031AFBDE8F88F0000000401400000111003
:100B8000001002400000014000080140000C01403C
:100B900000100140001401400148806870470000C7
:100BA000000000207047704710B5040013D02420C7
:100BB00084F83D002068016821F0010101602046B1
:100BC00000F0CAFC0020206484F83D0044F8300F97
:100BD000A073207310BD012010BD2DE9F041016804
:100BE00004464A694E6890F83E000025D743FA054E
:100BF0000BD4F243D20508D46FF4807201254A6108
:100C000021680A6842F400420A60B90508D4F14339
:100C1000C90505D422686FF4007145F002055161E1
:100C2000790525D4F143C90522D4638D94F83D108C
:100C3000226B202808D13BB9212910D029290ED0B8
:100C4000282901D1212A0AD022686FF480615161DC
:100C500045F00405102806D0402804D008E02046BE
:100C600001F0FAFE04E02068016841F400710160BF
:100C7000380508D4F043C00505D421686FF400603E
:100C800045F008054861002D07D0206C28432064FA
:100C90002046BDE8F04101F069BABDE8F0812DE9D8
:100CA000F047026800215368C66A90F83E4090F809
:100CB0003D50102C12D0402C10D0046C002C7DD054
:100CC0005469E443A6077AD4DE43B60577D4036CAF
:100CD00003B19169BDE8F04701F09ABE9769516987
:100CE0004FF42A0CC9435FEAC1784FF02A4904D077
:100CF00066452AD04E4528D010E0DE43B6050DD417
:100D0000C16A614501D1012103E0C16A494501D1B0
:100D10000821C162BDE8F04701F012BD0E0716D4EC
:100D2000DE43B60513D4416CC9B21161416B09B100
:100D3000896A29B9816B002907D0896A002904D002
:100D40000068416841F400614160BDE8F0878E07AA
:100D500006D4DE43B60503D4BDE8F04701F044BC39
:100D6000FE43526876074FEA02521DD4002AECDB9C
:100D70000A0608D4DA43520505D4490705D5BDE86B
:100D8000F04701F0D5BB4907DFD4D9438905DCD44E
:100D9000212D05D0402CD8D1BDE8F04701F016BD7B
:100DA000BDE8F04701F082BB002ACEDB4A060BD437
:100DB000DA43520508D4490708D501E00DE00EE0FA
:100DC000BDE8F04701F0FEBA4907BED4D943890512
:100DD000BBD4BDE8F04701F08CBA916970E7E10639
:100DE00006D4D943890503D4BDE8F04701F076BEA7
:100DF0002821212D27D0292D25D0650655D4DD4366
:100E00006D0552D4640752D590F83D30448D002CC6
:100E10009BD01269446A2270426A521C4262428D1F
:100E2000521E4285428D002A8FD12A2B8DD1026815
:100E3000536823F4806353602222026380F83D10DC
:100E400000F0EAFB81E7250623D4DD436D0520D4BD
:100E5000640720D590F83D30448D002CF2D0446AD0
:100E600024781461426A521C4262428D521E4285AD
:100E7000428D002AE6D1292BE4D10268536823F47D
:100E8000806353602122026380F83D1000F0C5FBAF
:100E90005BE76107D6D4D9438905D3D4418D0029B6
:100EA000D0D0416A097811610AE06107CAD4D943F8
:100EB0008905C7D4418D0029C4D01169426A1170D7
:100EC000416A491C4162418D491E41853DE7704799
:100ED00090F83D007047000070B5040025D094F8EC
:100EE0003D00002520B984F83C50204600F056FB18
:100EF000242084F83D002068016821F00101016090
:100F00002068016841F4004101602068016821F413
:100F10000041016000F0C0FC4D4A6168914201D877
:100F20004C4900E04C49884201D2012070BD4B4938
:100F30002368B0FBF1F15E6826F03F060E435E6069
:100F40006368934206D94FF4967359434FF47A730A
:100F5000B1FBF3F12368491C1E6A26F03F063143BA
:100F600019626168914210D84900401EB0FBF1F24D
:100F7000521CC2F30B02042A01D2042022E0B0FB6F
:100F8000F1F0401CC0F30B001CE0A268F2B301EBCF
:100F9000C10303EB0116431EB3FBF6F35B1C43F4E2
:100FA00080431B0549D092B301EBC10202EB011152
:100FB000401EB0FBF1F0401CC0F30B0040F4804039
:100FC00040F400402168CA694CF6FF739A4310430D
:100FD000C861D4E9071001432068026822F0C0020A
:100FE00011430160D4E9030101432068826848F29B
:100FF000FF339A4311438160D4E905010843216816
:10100000CA6822F0FF021043C86001E00EE016E05B
:101010002068016841F0010101602564202084F806
:101020003D00256384F83E50002070BD01EB410671
:10103000431EB3FBF6F35B1CB3E70120C2E701EBF1
:101040004101401EB0FBF1F0401CC0F30B00B7E7BC
:10105000A086010080841E0000093D0040420F0070
:101060002DE9FF4F81B089460446FFF795FD0546FF
:1010700094F83D004FF0010820287DD1192301226A
:1010800050492046009501F0FDFD002874D194F8E8
:101090003C00012870D0012084F83C0020680168E1
:1010A000C90703D1016841F00101016020680168AE
:1010B00021F400610160242084F83D0000262664AC
:1010C0004148E0624FF0011B20272068016841F48D
:1010D000807101600095002259462046049B01F072
:1010E000D1FD50B120680068C00502D54FF40070F2
:1010F0002064032005B0BDE8F08F216809F0FE00F0
:101100000861FFF749FD2168054648694969C0F350
:101110004000C1F380214FF0A00A0FE0FFF73CFD33
:10112000411B0498814200D808B984F83DA0216889
:1011300048694969C0F34000C1F3802194F83D201B
:10114000A02A02D008B90029E8D084F83D702068B0
:101150004169C943890716D4016841F400710160EF
:1011600020684169806919230122164920460095AB
:1011700001F088FDB8B900E021E084F83D7084F802
:101180003C600020B6E7016841F40071016021680D
:101190006FF480604861192301220A4920460095B6
:1011A00001F070FD08B10120A4E7039808F10108DF
:1011B00080458AD384F83D7084F83C60F3E70220D0
:1011C00098E70000020010000000FFFF7047704722
:1011D00070477047704700002DE9FF4F83B000252E
:1011E000DDE910799A4693460446DDF8488000957B
:1011F000FFF7D2FC064694F83D0020287CD1192345
:10120000012285492046009601F03CFD0028F5D1D9
:1012100094F83C0001286FD0012084F83C0020683D
:101220000168C90703D1016841F00101016020682C
:10123000016821F400610160222084F83D00402013
:1012400084F83E0025646762A4F82A90608D2085AA
:101250007248E062CDE9008653465A46204604991A
:1012600001F004FB00287DD1208DDFF8B491202708
:1012700068B1012814D00228206801681ED041F40A
:10128000806101602068416980690090B6E0206853
:10129000416981690091016841F400710160ADE02C
:1012A0002068016821F48061016072B6206841699C
:1012B00081690091016841F400710AE041F4006124
:1012C000016072B62068416981690091016821F46A
:1012D0008061016062B691E0032868D801280CD0D3
:1012E000022843464FF000024946204600960FD0A0
:1012F00001F0C8FCB0BB10E08BE03246414620460E
:1013000001F03FFD70BB20680069616A08706CE005
:1013100001F0B8FC30BB72B634E02068016821F4FB
:101320008061016072B620680069616A0870606A55
:10133000401C6062208D401E2085608D401E6085AF
:10134000384846F2A8110068B0FBF1F0C0EBC000CD
:1013500000EB80000090401E009008D0206840699B
:10136000C04300E029E040070CD50098F3E744F8BB
:10137000305F6773A573206940F02000206162B67A
:1013800025731AE02068016841F40071016020684B
:101390000069616A0870606A401C6062218D491EA4
:1013A0002185618D491E618562B621681BE0324648
:1013B0004146204601F0E5FC18B1012007B0BDE828
:1013C000F08F20680069616A0870606A401C606282
:1013D000218D491E2185618D491E618521684A69DB
:1013E000D24352070AD409690170606A401C6062E6
:1013F000208D401E2085608D401E6085208D002838
:101400007FF46AAF84F83D7084F83E5084F83C5015
:10141000D4E70220D2E70000020010000000FFFF26
:10142000040001000C0000202DE9FF4F83B09A4614
:10143000DDE9119793460446DDF84080FFF7ACFBE9
:10144000054694F83D0020287FD119230122404908
:101450002046009501F016FC002876D194F83C0057
:10146000012872D0012084F83C0020680168C90777
:1014700003D1016841F0010101602068016821F495
:1014800000610160212084F83D00402084F83E0086
:1014900000262664C4F82480A4F82A90608D208554
:1014A0002C48E062CDE9007553465A46204604991F
:1014B00001F05AFA70B930E02A463946204601F068
:1014C00093FC58B1206C042804D12068016841F4D1
:1014D00000710160012007B0BDE8F08F606A2168EB
:1014E00000780861606A401C6062218D491E89B2E3
:1014F0002185628D521E628522685369DB435B073A
:101500000BD469B100781061606A401C6062208D64
:10151000401E2085608D401E6085208D0028CBD127
:101520002A463946204601F087FB0028CAD154F8E4
:101530003D0B016841F400710160202004F81E0990
:10154000E67766770020C6E7FFE70220C3E70000E2
:10155000020010000000FFFF10B500680C4988422F
:1015600015D10C48C16921F40011C1610A4C402118
:101570002046FFF7A3F980212046FFF79FF91F209F
:1015800000F0A4F8BDE81040202000F09FB810BD86
:101590000054004000100240000C014010B586B01D
:1015A000002100910191029103910068174988423E
:1015B0002AD1174CA06940F00800A061A0696946D3
:1015C00000F008000490C020009012200190032039
:1015D00003901048FFF7F0F9E06940F40010E06173
:1015E000E069002200F40010049011461F2000F072
:1015F0008BF81F2000F07BF800221146202000F01D
:1016000083F8202000F073F806B010BD00540040AD
:1016100000100240000C014070477047024881688A
:10162000027811448160704700000020074810B51F
:10163000016841F010010160032000F085F80F20DF
:1016400000F006F800F024F8002010BD0020024051
:1016500070B50D4D04464FF47A712878B1FBF0F067
:101660000A490968B1FBF0F000F0FCFA48B9102C07
:1016700007D200222146501E00F046F800206C6080
:1016800070BD012070BD0000000000200C00002093
:101690000C4808B5816941F001018161816901F05F
:1016A00001010091C16941F08051C161C06900F040
:1016B000805000900448416821F0E06141F00071E1
:1016C000416008BD001002400000014000280DDB11
:1016D00000F01F02012191404009800000F1E0204C
:1016E000C0F88011BFF34F8FBFF36F8F7047002892
:1016F00009DB00F01F02012191404009800000F148
:10170000E020C0F800117047F0B40E4B1B680C4687
:10171000C3F30223C3F10705042D00D90425191DC5
:10172000072901D2002300E0DB1E012606FA05F19D
:10173000491E214099409E40761E16403143F0BC20
:1017400001F062BE0CED00E0064900F007020868F7
:101750004FF6FF03184040EA0220034A1043086096
:10176000704700000CED00E00000FA052DE9F0479D
:101770000F46050061D0434E306800F00700B842C4
:1017800009D2306820F0070038433060306800F03C
:101790000700B84251D128683B4C810712D5400759
:1017A00003D5606840F4E06060602878000703D5E6
:1017B000606840F4605060606068A96820F0F000E4
:1017C000084360602878C00728D06868012810D0D6
:1017D0002168022810D0890700292EDA616821F0DB
:1017E000030101436160FFF7D7F9804641F2883970
:1017F0000DE021688903EFE78901EDE7FFF7CCF9F8
:10180000A0EB0801494502D90320BDE8F0876068D4
:10181000696800F00C00B0EB810FEFD1306800F088
:101820000700B8420BD9306820F007003843306019
:10183000306800F00700B84201D00120E5E72878C1
:10184000400705D56068E96820F4E06008436060FF
:101850002878000706D56068296920F4605040EABE
:10186000C100606000F038F86168084AC1F30311F4
:10187000515CC8400649086006480068FFF7E8FE6A
:101880000020C2E70020024000100240243E000871
:101890000C00002004000020044805490068496845
:1018A000044AC1F30221515CC84070470C0000207B
:1018B00000100240343E00080448054900684968A9
:1018C000044AC1F3C221515CC84070470C0000209B
:1018D00000100240343E000812A185B00FC98DE807
:1018E0000F0014A0144A006804905168134801F0D6
:1018F0000C03042B10D0082B0ED1C1F38343C90372
:101900001DF803000AD5516804AAC1F34041515C97
:101910000A4A5043B0FBF1F005B07047084948430C
:10192000FAE7000002030405060708090A0B0C0D7C
:101930000E0F1010010200000010024000127A0089
:1019400000093D002DE9F84F040070D02078C04D0B
:10195000C00749D06868C0F38100012807D06868D3
:10196000C0F38100022809D16868C00306D5286841
:10197000800339D560680028E7D035E06068B0F5AD
:10198000803F0BD010B1B0F5A02F11D0286820F403
:1019900080302860286820F4802002E0286840F425
:1019A00080302860606890B1FFF7F6F806460AE0DC
:1019B000286840F480202860F0E700BFFFF7ECF8CB
:1019C000801B642873D828688003F7D50CE0FFF7E4
:1019D000E3F8064605E000BFFFF7DEF8801B642849
:1019E000F0D828688003F7D420789A4E80074FF00B
:1019F00001094FF0000839D5686810F00C0F07D0C6
:101A00006868C0F38100022809D16868C00306D461
:101A10002868800714D52069012808D110E02069C2
:101A2000B0B1C6F80090FFF7B7F8074605E00AE145
:101A3000FFF7B2F8C01B0228C4D828688007F7D582
:101A40002868616920F0F80040EAC10028600DE0D4
:101A5000C6F80080FFF7A0F8074604E0FFF79CF8FF
:101A6000C01B022823D828688007F7D420780007F5
:101A70002CD57948A169D9B1C0F80090FFF78CF84E
:101A8000074604E0FFF788F8C01B02280FD8686AF1
:101A90008007F7D571484FF4FA510068B0FBF1F0B8
:101AA000009000BF0098411E0091FAD20EE080E045
:101AB000C0F80080FFF770F8074604E0FFF76CF805
:101AC000C01B022875D8686A8007F7D420784007C1
:101AD00060D5E8690027C00008D4E86940F080506C
:101AE000E861E869012700F0805000905C480168D7
:101AF000C90513D40168834641F480710160FFF782
:101B00004BF8824606E000BFFFF746F8A0EB0A005C
:101B100064284ED8DBF80000C005F5D5E068012840
:101B20000AD008B1052813D0286A20F001002862E5
:101B3000286A20F0040002E0286A40F001002862D0
:101B4000E06841F2883B98B1FFF726F882460BE047
:101B5000286A40F004002862EEE700BFFFF71CF897
:101B6000A0EB0A0159455AD8286A8007F6D50CE03F
:101B7000FFF712F8824605E0FFF70EF8A0EB0A0126
:101B800059454CD8286A8007F6D41FB1E86920F07F
:101B90008050E861E06988B36968C1F38101022976
:101BA00044D00228C6F8608004D0FEF7F5FF044652
:101BB00038E034E0FEF7F0FF074604E0FEF7ECFF04
:101BC000C01B02282BD828688001F7D4206AB0F502
:101BD000803F05D16868A16820F400300843686040
:101BE000D4E908010843696821F474110843686066
:101BF000C6F86090FEF7D0FF044606E025E000BF7F
:101C0000FEF7CAFF001B022809D828688001F7D513
:101C10001BE000BFFEF7C0FF001B022802D9032013
:101C2000BDE8F88F28688001F4D40EE00128F7D0D1
:101C30006868226A00F48031914204D1616A00F43C
:101C40007010884201D00120EAE70020E8E7000098
:101C50000010024000004242800442420C0000207A
:101C60000070004010B5401EB0F1807F01D301200C
:101C700010BD4FF0E02460610F21601701F0C4FB3C
:101C80000020A06107202061002010BD7047704730
:101C9000F8B5026804461068D168536910F00F0F58
:101CA0004FF0000553D003F0010601F4907737435D
:101CB0005FD0C20705D0CA0503D5226C42F00102ED
:101CC0002264420705D5DA0703D0226C42F00202F3
:101CD0002264820705D5DA0703D0226C42F00402A1
:101CE0002264020707D501F02002324303D0226CA0
:101CF00042F008022264226C002A34D0800604D507
:101D0000880602D5204601F077FA20684069216CE8
:101D1000C0F38010090700D430B3204601F054FA14
:101D20002068416949061BD5416921F040014161A4
:101D3000A06BA8B158494163A06BFEF75DFD002878
:101D400011D0A06B416B01B0BDE8F040084783069D
:101D50000FD58B060DD52046BDE8F84001F04CBAF2
:101D60002046FFF794FFF8BD2046FFF790FF25645B
:101D7000F8BD266B2023012E52D1C60650D5CE06C3
:101D80004ED5106850680090506940062AD5A16B66
:101D9000086840680004000CEAD0A68D8642E7D9A6
:101DA000E0858869202818D0D06820F48070D06041
:101DB0002068416921F0010141612068416921F0F9
:101DC0004001416184F83E3025632068C16821F0FC
:101DD0001001C160A06BFEF7EBFCA08DE18D401AF5
:101DE00081B219E0A08DE18D401A81B2E08D00280A
:101DF000BED00029BCD0D06820F49070D06020689C
:101E0000426922F00102426184F83E302563206875
:101E1000C26822F01002C2602046FFF737FFF8BD0B
:101E200005062BD50D0629D594F83D002128F6D1BD
:101E3000A068B0F5805F01D12069B0B1206A411C73
:101E40002162216800784860E08C401E0004000C8C
:101E5000E084E4D12068C16821F08001C16020687D
:101E6000C16841F04001C160F8BD206A0088C0F33C
:101E700008005060206A801C2062E5E74006F3D528
:101E80004806F1D5D168204621F04001D16084F8A0
:101E90003D3000F0FEF8F8BDB931000870B504001F
:101EA00004D094F83D00002510B106E0012070BD7B
:101EB00084F83C50204600F023F8242084F83D00AC
:101EC0002068C16821F40051C160204601F0F0F99A
:101ED0002068016921F4904101612068416921F085
:101EE0002A0141612068C16841F40051C160256444
:101EF000202084F83D0084F83E00002070BD0000E2
:101F000030B585B0002400940194029403942E4DC2
:101F100003682E4802210322AB4227D1C36943F450
:101F20000033C361C36903F400330493836943F04E
:101F3000040383618069264D00F0040004900420AE
:101F4000CDE90001039269462846FEF735FD0820D9
:101F5000CDE90004694628460294FEF72DFD0022D3
:101F600011462620FFF7D0FB262029E0194DAB4271
:101F700028D1C36943F48023C361C36903F4802378
:101F80000493836943F0080383618069039200F03E
:101F9000080004902815CDE900010F4D6946284638
:101FA000FEF70AFDE814CDE90004694628460294CC
:101FB000FEF702FD002211462720FFF7A5FB272090
:101FC000FFF795FB05B030BD004400400010024013
:101FD0000008014000480040000C0140704700002C
:101FE0002DE9F843044690F83D001F4616460D467D
:101FF00020284CD1C5B1BEB194F83C00012846D090
:10200000012084F83C004FF00008C4F840802120F3
:1020100084F83D00FEF7C0FDA6848146E684A068F2
:10202000B0F5805F03D004E00120BDE8F8832069AB
:1020300028B12E465FF0000584F83C800EE00026B3
:10204000FAE78021204601F08FF9A0B9AEB116F869
:10205000010B21684860E08C401EE084E08C4B4618
:102060004FF0000200970028EBD14FF040012046CE
:1020700001F07AF930B10320D7E735F8020BC0F34D
:102080000800E6E7202084F83D000020CDE702208C
:10209000CBE77047FEE700000148FEF79EBD000059
:1020A000200000200148FEF7FABD000020000020BB
:1020B00038B5406A002190F83D202B4B46F2A81419
:1020C0001B68B3FBF4F3C3EBC30303EB830300937D
:1020D0003BB15B1E009303681B689B0505D5009B05
:1020E000F6E7036C43F020030364436B03B199628A
:1020F000836B03B1996203681C6824F480641C60DC
:102100004185436B03B15963836B03B15963036822
:102110001C6824F001041C6090F83D402023602CD2
:102120000BD0282434EA02020FD080F83D3080F82A
:102130003E1000BFFEF7CBFE38BD80F83D3080F882
:102140003E100164FEF72EFD38BD0268136843F0AF
:10215000010313600268136843F480631360016332
:1021600080F83D40E6E700000C00002070B5044612
:1021700090F83D0094F83E10102901D0402906D176
:10218000222804D121680A6822F400620A6028210A
:1021900031EA00024FF000054FF0200626D02168FA
:1021A0004968090505D4602803D084F83D6084F8A7
:1021B0003E50256320684168090537D5416821F400
:1021C00000614160606B3D4990F82120012A11D0E7
:1021D0004163606BFEF710FB38B32068016821F0A3
:1021E0000101016084F83D60606B1CE0256384F8A8
:1021F0003D10DFE7A06B4163A06BFEF7FDFAA0B1D5
:1022000020684169C943490605D40069616A0870BC
:10221000606A401C60622068016821F00101016071
:1022200084F83D60A06B416B884710E094F83D1046
:10223000602910D04169C943490605D40069616A23
:102240000870606A401C60622046FEF740FE206C09
:10225000C1071CD115E084F83D6025644169C9437C
:10226000490605D40069616A0870606A401C6062B2
:102270002068016821F0010101602046FEF792FC10
:10228000E5E7810703D4410701D4000704D520689E
:10229000416821F4E061416094F83D00216C4907F8
:1022A0000BD5282809D10648E062256384F83D60F3
:1022B00084F83E502046FEF789FF70BDB12000082B
:1022C0000000FFFF01684A69D24352050FD46FF442
:1022D00080624A61002140F8301F202242738173DE
:1022E000026942F00402026101730120704700207C
:1022F000704710B5C26A438D0168042B06D0438D28
:10230000032B08D0438D022B1DD012E04A6822F423
:1023100080624A600CE04B6823F480634B60042ABF
:1023200006D0022A04D001680A6822F480620A609A
:1023300001680969426A1170416A491C4162418D14
:10234000491E418510BD012A30D0102A2ED0042A02
:1023500030D0022A2ED00A6842F400720A60016866
:102360000969426A1170416A491C4162428D521EDC
:102370004285026812690A70416A491C4162418DB6
:10238000491E418501684A6822F440724A60202152
:1023900080F83D1090F83E200021402A80F83E1041
:1023A0000CD012210163FEF712FF10BD0A6822F45F
:1023B0008062D3E70A6842F48062CFE70163FEF7E8
:1023C00008FF10BD38B590F83D10222914D1418D79
:1023D000032912D901680969426A1170416A491CCE
:1023E0004162418D491E4185418D032904D1006818
:1023F000416821F48061416038BDC26A022AFBD085
:10240000012901D00029F7D1274946F2A81300225B
:102410000968B1FBF3F101EB810100910168202310
:10242000009C641E009422D00C68A405F8D40C68AB
:1024300024F480640C6001684C6824F4E0644C600F
:1024400001680969446A2170416A491C4162418DF1
:10245000491E418580F83D3090F83E1080F83E20BE
:1024600040291DD012210163FEF7B1FE38BD046C76
:1024700044F0200404644C6824F4E0644C60016877
:102480000969446A2170416A491C4162418D491EB3
:10249000418580F83D3080F83E20FEF718FD38BDBC
:1024A0000263FEF796FE38BD0C00002010B5C26A2C
:1024B00090F83D1021290BD1418D51B1416A02683C
:1024C00009781161416A491C4162418D491E41856B
:1024D00010BD20230021082A13D0202A11D012F584
:1024E000803F0ED00268546824F4E06454601122E6
:1024F000026380F83E1080F83D3000BFFEF768FEB2
:1025000010BD0268546824F4E064546002681468E2
:1025100044F400741460016380F83D3090F83E206C
:1025200080F83E10402AE9D1FEF754FE10BD0000AD
:1025300010B590F83D1090F83E30C26A048DB4B1E9
:10254000212903D0402B11D122290FD1418DE1B394
:1025500090F83E10402942D0416A02680978116122
:10256000416A491C4162418D491E418510BD2129A6
:10257000E8D120230021082A13D0202A11D012F5F7
:10258000803F0ED00268546824F4E0645460112245
:10259000026380F83E1080F83D3000BFFEF718FE61
:1025A00010BD0268546824F4E06454600268146842
:1025B00044F400741460016380F83D3090F83E20CC
:1025C00080F83E10402AE9D100E002E0FEF702FE6A
:1025D00010BD0068416821F48061416010BDBDE814
:1025E000104000F0F3B8000078B590F83E50C26A91
:1025F000046B90F83D6000230168222E73D1066DB4
:102600000EB9402D6FD0056D1DB90569B5F5404F68
:102610001BD0458D95B3468D484D012E20D0448D5D
:10262000022C4DD00C6844F480640C6001684C6846
:10263000240579D5AA4273D0012A71D0082A6FD017
:10264000102A6DD0202A6BD06EE04A698A69009208
:102650000A6842F480720A60016D491C016578BD08
:10266000AA4214D10A6822F480620A6001684A68AA
:10267000120504D50A6822F4806217E0FFE74A6970
:102680008A6900920A6842F400720A6050E0082ADF
:1026900010D0202A0ED0122C0AD0042A03D0022AED
:1026A00001D0102AE6D10A6842F480620A603BE059
:1026B000012ADFD00A6822F480620A600168DEE73E
:1026C000042A11D0022A0FD0102A0DD00C6844F42D
:1026D00000640C6001684C698C6900940C6824F4F7
:1026E00080640C6008E025E00C6844F480640C60B1
:1026F00001684C698969009101684C68240517D507
:10270000AA4207D0012A05D0082A03D0102A01D0F6
:10271000202A0DD14A6842F480524A6008E0FFE75F
:102720004A6842F480524A6001684A6989690091A6
:10273000036578BD48698869009078BD0000FFFF97
:1027400090F83E10402910D00169B1F5804F19D0A2
:10275000016DA9B3016D012910D1416C5FF0F10247
:1027600001F4407142EAD11106E0016D0029416C8B
:1027700005D0C9B241F0010100680161704701F064
:10278000FE01F9E790F83D102129416C09D0C9B24A
:1027900041F0010102681161416B29B1896A49B9AF
:1027A00002E001F0FE01F5E7816B0029E6D0896ABD
:1027B0000029E3D00068416841F40061416070473E
:1027C000FFE7416CF02201F44071CBE710B590F8BF
:1027D0003D10026D22B3026D012A2FD0026D022A34
:1027E0001DD122292FD0428D0AB1212933D0428D0B
:1027F000002A14D1212912D101684A6822F4E0622A
:102800004A6001680A6842F400720A6000210163AC
:10281000202280F83D2080F83E10FEF7DBFC10BD42
:10282000C16C0129816C02D0C1F3072108E0026864
:10283000C9B21161016D891C016510BD816CC9B2FD
:102840000268116104E001680A6842F480720A605B
:10285000016D491CF0E7416A026809781161416A1B
:10286000491C4162418D491E418510BD2DE9F84F3B
:102870000446006889460B9D01689846174641F456
:10288000806101602068016841F4807101600095F9
:102890004FF0011B0022594620460A9B00F0F2F936
:1028A0004FF4007A40B120680068C00501D5C4F833
:1028B00040A00320BDE8F88F216809F0FE00086100
:1028C0002B46284920460A9A00F010FAF0BB2068EF
:1028D0004169806900902A4620460A9900F084FAEE
:1028E00040B1206C04283AD12068016841F400719D
:1028F000016034E0FEB2B8F1010F09D02168380A56
:1029000008612A4620460A9900F06EFA0028E8D1AC
:10291000206806612A4620460A9900F065FA0028D8
:10292000DFD12068016841F48071016000950022C8
:10293000594620460A9B00F0A5F90028B3D121682A
:1029400009F0FF0040F00100086100E007E02B46BD
:10295000044920460A9A00F0C9F90028AAD00120AB
:10296000A8E70000020001002DE9F84304460068D2
:102970000D46DDE9089701689846164641F48071D6
:1029800001604B4600224FF001112046009700F0F5
:1029900079F948B120680068C00502D54FF400708D
:1029A00020640320BDE8F883216805F0FE0008617B
:1029B0003B464A461549204600F098F988B92068F8
:1029C0004169806900903A464946204600F00CFA79
:1029D00048B1206C042804D12068016841F40071DA
:1029E00001600120DEE7F5B2B8F1010F09D02168DE
:1029F000300A08613A464946204600F0F5F90028B9
:102A0000E7D1206805610020CCE70000020001004A
:102A100038B50C4690F83D200021282595430268E2
:102A20000B4605D051699169009180F83C3038BD62
:102A3000556825F480655560E243540700D50121AF
:102A4000120601D5828900E0028B80F83C3092B2F8
:102A5000FEF7A9F838BD00002DE9F04190F83D409F
:102A6000C26A002320261C4F01686FF48065082A83
:102A700001D0202A01D1282C04D0212C16D04D6160
:102A8000BDE8F081C7624A6822F4E0624A600168EA
:102A90004D6101680A6822F480620A60036380F86D
:102AA0003D6080F83E30FEF791FBE9E7C7622122E6
:102AB000026380F83D6080F83E304A6822F4E062AC
:102AC0004A6001684D6101680A6822F480620A6008
:102AD000FEF7A3FDD4E700000000FFFFF8B590F873
:102AE0003D6004460068416821F4E061416020686F
:102AF000002541690091016841F0010101602068F1
:102B0000016821F48061016020684168090520D5D1
:102B1000474F222E48D02A2E46D0616B096849685B
:102B20006185618D19B1216C41F004012164416816
:102B300021F400614160606BFDF7AAFE012808D016
:102B4000606B4763606BFDF757FE10B1606B416BC4
:102B50008847608D08B320684169C943490708D494
:102B60000069616A0870606A401C6062608D401E86
:102B7000608520684169C943490608D40069616AD3
:102B80000870606A401C6062608D401E6085608DC8
:102B900018B1206C40F004002064206C00B3204683
:102BA000BDE8F840FFF7E2BAA16B096849686185A2
:102BB000618D19B1216C41F004012164416821F457
:102BC00000614160A06BFDF763FE0128C1D0A06BDE
:102BD0004763A06BFDF710FE0028BAD0A06BB6E7E4
:102BE0002A2E06D12563282084F83D002046FEF7D2
:102BF00013FD94F83D10202028290DD0216B2229A7
:102C000001D0222E07D1256384F83D0084F83E5080
:102C10002046FEF701FDF8BD0649E162256384F810
:102C20003D0084F83E502046FEF7D0FAF8BD000083
:102C3000B12000080000FFFF70B516460D4604469F
:102C40000DE02046FFF73EFB08B1012070BD681C77
:102C500005D0FDF7A1FF801BA84207D835B1206839
:102C60004069C0434007ECD4002070BD002044F808
:102C7000300F20216173A073216941F0200121618F
:102C80002073E2E72DE9F0471E4690460D460446C4
:102C9000C1F30747DDF8209008E0701C06D0FDF76F
:102CA0007BFFA0EB0900B0420FD876B12068012F5E
:102CB00018D0806925EA00000004000C14D000211F
:102CC0004145EAD00020BDE8F087002044F8300FED
:102CD00020216173A073216941F0200121612073DB
:102CE0000120F0E74069E5E70121E9E72DE9F04738
:102CF0009A4691460E46044600254FF02008C1F33F
:102D0000074725E020684069C043400514D4206887
:102D1000016841F40071016021686FF480604861CE
:102D2000256384F83D8084F83E50206C40F0040018
:102D3000206484F83C501FE0B9F1FF3F08D0FDF754
:102D40002BFFA0EB0A0149450CD8B9F1000F09D0BF
:102D50002068012F13D0806926EA00000004000CCF
:102D60000BD0CFE744F8305F84F80D80A57320695D
:102D700040F02000206125730120BDE8F087406904
:102D8000EAE72DE9F041002590460E46044620274B
:102D900017E04069C043C0060CD454F8301B6FF0F4
:102DA0001000486144F810596777A577206A2062BF
:102DB000257717E0FDF7F0FEA0EB0800B04208D839
:102DC0003EB120684169C9434906E2D40020BDE80C
:102DD000F08144F8305F6773A573206940F02000EC
:102DE000206125730120F2E770B516460D460446B2
:102DF0000DE02046FFF766FA08B1012070BD681C9F
:102E000005D0FDF7C9FE801BA84207D835B1206860
:102E10004069C0430006ECD4002070BD002044F897
:102E2000300F20216173A073216941F020012161DD
:102E30002073E2E710B50348FDF7B6FEBDE8104089
:102E400000F0CAB8200000207CB514460D460646A6
:102E5000062269463B2000F06CF8BDF8000040BA3D
:102E60003080BDF8020040BA2880BDF8040040BAA6
:102E700020807CBD7CB514460D4606460622694678
:102E8000432000F056F8BDF8000040BA3080BDF88D
:102E9000020040BA2880BDF8040040BA20807CBD02
:102EA00008B500208DF8000001226946752000F069
:102EB00040F89DF80010682904D0054800F094FA05
:102EC000002008BD03A000F08FFA012008BD00001B
:102ED0003C3E00083C3C2D4932432D494E464F2D87
:102EE0003E3E204D505536303530204944203D205F
:102EF00025640D0A0A00000010B56420FDF7CCFC23
:102F000000216B2000F03AF80721192000F036F874
:102F100006211A2000F032F800211C2000F02EF8C3
:102F200018211B2000F02AF8BDE81040C820FDF74A
:102F3000B3BC0B460146D02000F0AAB838B5044611
:102F4000022269464120FFF7F4FFBDF8000040BAB5
:102F500000B2FDF738FA0022054BFDF7AEF9054A3D
:102F6000054BFDF703F9FDF752FA206038BD00006C
:102F700000407540A4703D0AD743424013B5014656
:102F800001AB0122D02000F0ABF81CBD114808B500
:102F9000816941F010018161816901F010010091A6
:102FA000816941F020018161816901F02001009176
:102FB000816941F004018161816901F0040100919E
:102FC000816941F008018161806900F0080000908A
:102FD00008BD0000001002400D4810B50B4901600B
:102FE0000C49416000214FF480428160C0E9031226
:102FF00041618161C1610162FDF76EFF002803D06C
:10300000BDE81040FDF7D2BB10BD000000540040E9
:1030100020000020A08601000C4810B50A4901607C
:103020004FF4E1314160002181600C22C160C0E9B0
:1030300004128161C161FEF731FF002803D0BDE8B1
:103040001040FDF7B3BB10BD0044004074000020E9
:103050000C4810B50A4901604FF4E131416000218C
:1030600081600C22C160C0E904128161C161FEF778
:1030700015FF002803D0BDE81040FDF797BB10BD39
:1030800000480040B8000020FEE7FEE770477047A8
:10309000FEB50646CDE900320A464FF47A75014680
:1030A000029501230D48FEF797F8040002D0304640
:1030B000FFF7C0FE0948FDF70BFF2028FAD12A468A
:1030C0002B4631460548FDF7CBFF0328F7D00348D0
:1030D000FDF7FEFE2028FAD12046FEBD200000208C
:1030E000FEB50646CDE900320A464FF47A75014630
:1030F000029501230D48FEF797F9040002D03046EF
:10310000FFF798FE0948FDF7E3FE2028FAD12A468A
:103110002B4631460548FDF7A3FF0328F7D00348A7
:10312000FDF7D6FE2028FAD12046FEBD2000002063
:1031300010B5FEF773FA0749002000BF51F82020B0
:1031400012B1521E41F82020401CC0B20328F5D312
:1031500010BD00001400002030B58FB02821684653
:10316000FCF7F9FF14210AA8FCF7F5FF0121080478
:10317000CDE900100024029402250491CDE9075006
:103180004FF4E01009906846FEF7DCFB08B172B618
:10319000FEE70F20CDE90A054FF48060CDE90C4031
:1031A00002210AA80E94FEF7E1FA002801D072B6B7
:1031B000FEE70FB030BD704710B5406A0021C185F1
:1031C000C184FEF764FD10BD0168CA6822F49072E4
:1031D000CA6001684A6922F001024A61016B012953
:1031E00004D10168CA6822F01002CA60202180F868
:1031F0003E1000210163704708B590F83E10222967
:1032000001D0022008BD82684FF480539A4201D158
:10321000016921B1816A9A421BD04AB10AE0026871
:10322000816A5268C2F308020A80816A891C08E038
:10323000026972B10268526802F07F020A70816A04
:10324000491C8162C18D491E0904090CC18503D046
:1032500019E002685268F1E70168CA6822F02002AA
:10326000CA600168CA6822F48072CA6001684A694B
:1032700022F001024A61202180F83E10016B0129F1
:1032800003D0FEF7ABFE002008BD002101630168FA
:10329000CA6822F01002CA6001680A68D20602D524
:1032A0000A6849680091818DFEF7F0FCEBE70000A9
:1032B00070B5044600680169E26821F44051114389
:1032C00001612169A0680843616908432168CA68EF
:1032D00041F20C639A430243CA6020684169A269C3
:1032E00021F44071114341611E492068884202D196
:1032F000FEF7E2FA01E0FEF7CFFA00EBC00101EBC6
:103300000012606864218000B2FBF0F3B3FBF1F3BC
:103310006FF018067343B2FBF0F5B2FBF0F605EB65
:103320008305322303EB0515B5FBF1F5B6FBF1F68A
:1033300005F0F00505EB0615B2FBF0F6B2FBF0F078
:10334000B0FBF1F06FF01802504306EB800003EB86
:103350000010B0FBF1F0216800F00F0028448860F5
:1033600070BD0000003801402DE9F0419846174635
:103370000E460446069D1DE0681C1BD02DB1FDF7CE
:103380000BFCA0EB0800A84214D92068C16821F406
:10339000D071C1602068416921F0010141612020A4
:1033A00084F83D0084F83E00002084F83C000320AF
:1033B000BDE8F0812068006836EA000004D00020F3
:1033C000B842D9D00020F3E70120F9E70148FEF721
:1033D0005FBC0000740000200148FEF759BC0000EB
:1033E000B8000020FEE700000FB4054B10B503A99C
:1033F000044A029800F0EAF810BC5DF814FB0000E3
:10340000D53C0008100000200907090E002804DB45
:1034100000F1E02080F80014704700F00F0000F188
:10342000E02080F8141D704702E008C8121F08C190
:10343000002AFAD170477047002001E001C1121F35
:10344000002AFBD1704700002DE9FF5F82B0002108
:10345000DDE90430020DDDF840B0034318D044F636
:103460001050A2F2FF3242431514119801281FD0C8
:10347000A5EB0B00401C5FEA000A4FF000064E4F20
:10348000DFF83891B046504615D5CAF1000413E074
:10349000119801244AA3012801D16FEA0B01029877
:1034A000119AC0E90031C0E9024206B0BDE8F09FC0
:1034B000CBF10000DFE704460021404A491842EB07
:1034C0000450CDE9001012E0E00707D032463B4639
:1034D00040464946FDF7B3F88046894632463B46AA
:1034E00010461946FDF7ABF806460F466410002C4F
:1034F000EAD1DDE90401DDE90023BAF1000F06DAC3
:10350000FDF79DF842464B46FDF799F805E0FCF7BC
:10351000D4FE42464B46FCF7D0FE04460E4600223F
:10352000284BFDF717F903D84FF0FF30014607E0AD
:103530000022254B20463146FCF718FEFDF7F1F836
:10354000102409E0002C0ADB0A220023FCF791FF7B
:10355000039B30321A55641E50EA0102F2D1641CFA
:10356000039AC4F111031444119A012A03D00122D1
:1035700008430DD10AE0084304D000204FF0110B9E
:10358000119072E7A3EB0B056D1E0DE05B4504DDAA
:103590004FF0000205F1010504E003DA4FF00002EC
:1035A000A5F10105002AECD002981199C0E9023179
:1035B000C0E9004579E70000000014400000F03F3A
:1035C000300000000000F0430000E03F2DE9FF4F15
:1035D00095B09A46884606460025EEE1252877D123
:1035E00000242746F94A0121039400E0044316F819
:1035F000013F203B01FA03F01042F7D130782A282E
:1036000011D06FF02F033078A0F13002092A16D8BC
:10361000039A44F0020402EB820203EB42021044DC
:10362000761C0390EFE758F8042B0392002A03DA84
:10363000504244F40054039044F00204761C307865
:103640002E2816D116F8010F44F004042A280DD0B4
:103650006FF02F023078A0F13003092B09D807EB67
:10366000870302EB4303C718761CF3E758F8047B83
:10367000761C30786C280FD006DC4C2817D06828D0
:103680000DD06A2814D104E0742810D07A280FD104
:103690000DE044F400140AE044F4801401E044F422
:1036A00040147278824202D104F58014761C761C94
:1036B000307866280BD013DC582877D009DC002836
:1036C00075D04528F6D04628F4D047281AD193E182
:1036D00018E0632835D0642879D0652812D18BE1B1
:1036E000702873D008DC6728F1D069286FD06E2865
:1036F0000DD06F2806D1ACE073282CD0752874D07B
:10370000782853D05246179990476D1C54E1C4F362
:103710000250022809D003280DD0D8F80010042840
:103720000DD00D6008F1040846E1D8F80010EA1742
:10373000C1E90052F6E7D8F800100D80F2E70D70ED
:10374000F0E718F8041B8DF8001000208DF8010038
:10375000EB46012003E058F804BB4FF0FF3061074F
:103760004FF0000102D40DE009F101018946B94290
:103770000FDA8145F8DB1BF809100029F4D108E0C5
:1037800009F1010189468142FADB1BF80910002981
:10379000F6D103985346A0EB090721463846179AFD
:1037A00000F080FA284400EB090507E044E008E156
:1037B0000DE01BF8010B524617999047B9F101092A
:1037C000F7D2534621463846179AF2E039E00A21EB
:1037D000C4F302524FF0000B0091022A06D058F8B1
:1037E000040BC117032A09D00AE023E008F10700FF
:1037F00020F00702F2E80201904605E000B2C1178E
:10380000042A01D140B2C117002906DA0A46002174
:10381000404261EB02012D2202E0220504D52B2259
:103820008DF80420012203E0E20701D02022F7E70F
:10383000914657E00A2100E010214FF0000B009163
:103840000BE010214FF0000B44F004040827009116
:1038500003E008204FF0000B0090C4F30252022A4C
:1038600005D058F8040B0021032A08D008E008F11D
:10387000070020F00702F2E80201904603E080B260
:10388000042A00D1C0B24FF0000922072AD53278AD
:10389000702A07D0DDF800C08CF0100C5CEA0B0C2D
:1038A00005D00EE040228DF80420012208E050EA05
:1038B000010306D030238DF804308DF80520022254
:1038C0009146009B83F0080353EA0B030AD150EAA8
:1038D000010201D1620705D530228DF804204FF096
:1038E00001097F1E3278582A04D039A20C920CAA02
:1038F00002920BE03BA2F9E75B46009AFCF7B9FDA8
:103900000C9B9B5C029A521E0292137050EA0102B9
:10391000F2D1029804A9081A00F1200B600702D521
:1039200024F4803400E001275F4502DDA7EB0B00A3
:1039300000E0002000EB0B01009003984944401A7E
:103940000390E00306D453462146179A039800F0EB
:10395000A9F90544002706E001A85246C05D179961
:1039600090476D1C7F1C4F45F6DBE0030CD553469A
:103970002146179A039800F095F9054404E0302099
:103980005246179990476D1C0099481E00900029D7
:10399000F5DC08E00298029952460078491C029131
:1039A000179990476D1CBBF10001ABF1010BF1DCE5
:1039B0005BE100F065F90544761C307800287FF45F
:1039C0000DAE19B02846BDE8F08F000009280100AF
:1039D0003031323334353637383961626364656685
:1039E0000000000030313233343536373839414247
:1039F0004344454600000000600700D4062708F154
:103A0000070020F00700F0E80223804603F0004C96
:103A10005FEA0C0001D097A009E0200501D596A02F
:103A200005E0E00701D095A001E0AFF24C00139053
:103A3000307823F0004365280CD006DC452809D0F7
:103A400046281DD047287FD13BE0662818D067283C
:103A50007AD136E00021112F01DB112000E0781C23
:103A6000CDE9000104A90CA8FFF7EEFCDDE90D018A
:103A70000C9A4FF0000B07F10109109200914EE0F3
:103A80004FF000400097CDE9011004A90CA8FFF702
:103A9000DBFCDDE90D020C9B0F994FF0000B91460A
:103AA0001093009211B9791C00EB0109B7EB0900E2
:103AB00003D4C0F1FF3B07F10109A9EB0700019016
:103AC00042E0012F00DA01270021112F01DD112032
:103AD00000E03846CDE9000104A90CA8FFF7B4FCCA
:103AE000DDE90D010C9A00914FF0000BB9461092E0
:103AF00021070FD4009A4A4503DA914601E0A9F163
:103B00000109B9F1010F05DD109AA9F10101515C1C
:103B10003029F4D0B84202DA10F1040F03DA01219F
:103B2000CDE9011010E0002803DC8344A9EB00017B
:103B300002E0411C494500DD8946A0EB0B00401C1A
:103B400001904FF000400290200705D401984845AD
:103B500002DB4FF0FF30019000208DF84B000298FF
:103B60000DF14B07B0F1004F25D002200C902B2017
:103B70000D90029800280CDA404202902D200D9002
:103B800007E00A210298FCF75EFC3031029007F84A
:103B9000011D0C99481E0C900029F2DC02980028A7
:103BA000EFD1791E0D980870307800F0200040F0B9
:103BB000450007F8020D11A8C01BC01D0290139804
:103BC000007800B1012000EB0901019801EBE071E0
:103BD000029801440398401A401E0390E00306D463
:103BE00053462146179A039800F05CF80544139851
:103BF000007818B15246179990476D1CE00323D501
:103C000053462146179A039800F04CF805441BE0F0
:103C1000BBF1000F07DB0098584504DD1098179999
:103C200010F80B0001E01799302052469047019898
:103C30000BF1010B401E05F10105019004D12E206E
:103C40005246179990476D1CB9F10001A9F101097D
:103C5000DEDC05E017F8010B5246179990476D1C02
:103C60000299481E02900029F4DC53462146179A17
:103C700003989EE62D0000002B00000020000000AD
:103C80002DE9F041044600251E461746880404D459
:103C900005E039462020B0476D1C641EF9D5284642
:103CA000BDE8F0812DE9F041044600251E4690460E
:103CB000C80301D5302700E02027880404D505E09B
:103CC00041463846B0476D1C641EF9D52846BDE80C
:103CD000F081000013B54FF47A730122694602485F
:103CE000FEF77EF900981CBD740000208CB0FDF733
:103CF0009DFCFFF731FAFFF749F9FFF76DF9FFF780
:103D00008BF9FFF7A5F9FFF7F7F8FFF7C9F80128D6
:103D100003D02BA0FFF768FBFEE7DFF8C480404626
:103D2000D8F8001011B94FF47A710160D8F8040086
:103D30000028F4D109AA08A907A8FFF785F8BDF95A
:103D40002400FCF740FB6FF00D094A46FCF724FB0A
:103D500006460F46BDF92000FCF735FB4A46FCF746
:103D60001BFB04460D46BDF91C00FCF72CFB4A4624
:103D7000FCF712FB8DE8F00002460B4619A0FFF796
:103D800033FB06AA05A904A8FFF774F8BDF918309B
:103D9000BDF91420BDF9101018A0FFF725FB0AA8E3
:103DA000FFF7CCF80A98FCF71FFB02460B4618A059
:103DB000FFF71AFB4FF4FA61C8F80410AFE70000F0
:103DC0000D0AC3BBD3D0BCECB2E2B5BD4D505536E5
:103DD000303530B4ABB8D0C6F7A3A10D0A0000004F
:103DE00014000020BCD3CBD9B6C8A3BA256C666733
:103DF0002F256C66672F256C666700002020202029
:103E0000CDD3C2DDD2C73A25642F25642F256400A7
:103E100020202020CEC2B6C83A252E3266A1E60D5B
:103E20000A0000000000000000000000010203047E
:103E30000607080900000000010203043C3C2D496C
:103E400032432D4552524F522D3E3E204D50553655
:103E50003035302064656374656374656420657211
:103E6000726F72210D0ABCECB2E2B2BBB5BD4D500F
:103E70005536303530C4A3BFE9A3ACC7EBBCECB2B8
:103E8000E9C4A3BFE9D3EBBFAAB7A2B0E5B5C4BDEF
:103E9000D3CFDF0A00000000B83E00080000002079
:103EA0001400000028340008CC3E00081400002054
:103EB000EC0400003834000801000000100000008D
:0C3EC000000000000024F40000000000DE
:04000005080000ED02
:00000001FF
