:020000040800F2
:1080000030A100208983000887FE000863D900089A
:1080100085FE0008A1940008D74501080000000073
:10802000000000000000000000000000A50F010893
:10803000B9A100080000000089090108C13E01083B
:10804000A3830008A3830008A3830008A383000878
:10805000A3830008A3830008A3830008A383000868
:10806000A383000805A50008A3830008A3830008D4
:10807000CDA00008A3830008D9A00008A3830008AE
:10808000E5A00008F1A00008A3830008A38300086E
:10809000A5940008A3830008A3830008A383000815
:1080A000A3830008A3830008A3830008A383000818
:1080B000A38300088D3F0108A3830008A383000861
:1080C000A3830008A3830008A3830008A3830008F8
:1080D0006D0D0108A3830008A1450108A3830008D2
:1080E000A3830008A3830008A3830008A3830008D8
:1080F000A3830008A3830008A3830008A3830008C8
:10810000A3830008A3830008A3830008A3830008B7
:10811000A3830008A3830008A3830008A3830008A7
:10812000A3830008FDA00008A3830008A383000820
:10813000A3830008A3830008A3830008A383000887
:10814000A3830008B1940008A3830008A383000858
:10815000A383000809A10008A3830008B94501080A
:10816000A3830008A3830008A3830008BD9400082C
:10817000A3830008A38300080000000000000000A3
:10818000A3830008A3830008A3830008A383000837
:10819000A3830008A383000800000000A383000855
:1081A000A3830008A3830008000000000000000073
:1081B000A38300080000000000000000A383000863
:1081C000A3830008A3830008A3830008A3830008F7
:1081D000A3830008A383000800F002F800F065F80C
:1081E0000AA090E8000C82448344AAF10107DA4512
:1081F00001D100F05AF8AFF2090EBAE80F0013F0FF
:10820000010F18BFFB1A43F001031847A4EC00004C
:10821000C4EC000010F8013B0A4413F0030408BF4B
:1082200010F8014B1D1108BF10F8015B641E05D04A
:1082300010F8016B641E01F8016BF9D1002D15D007
:1082400010F8014B03F00C030C2BA1EB04040ABF44
:1082500010F8013BA4EB8314A4EB032405F1010304
:1082600014F8016B5B1E01F8016BF9D5914238BF20
:1082700010F8013BD1D370470023002400250026CD
:10828000103A28BF78C1FBD8520728BF30C148BF79
:108290000B607047642900F05781002070471FB5BC
:1082A0000EF012F91FBD10B510BD00F0EEFA114628
:1082B000FFF7F5FF0CF0A4FA00F00CFB03B4FFF796
:1082C000F2FF03BC00F014FB2C4B19680868B0E8FF
:1082D000F04F80F30988BFF36F8F4FF0000080F3F9
:1082E000118870470000000008480068006880F3AB
:1082F00008884FF0000080F3148862B661B6BFF3BF
:108300004F8FBFF36F8F00DF00BF00BF08ED00E0AD
:10831000DFF80C00016841F470010160704700BF94
:1083200088ED00E0EFF30980BFF36F8F134B1A68FD
:108330001EF0100F08BF20ED108A20E9F04F1060EA
:1083400009B44FF0500080F31188BFF34F8FBFF393
:108350006F8F0DF0C3FB4FF0000080F3118809BC54
:1083600019680868B0E8F04F1EF0100F08BFB0ECB5
:10837000108A80F30988BFF36F8F7047DC020020FA
:10838000EFF305807047000009488047094800471F
:10839000FEE7FEE7FEE7FEE7FEE7FEE7FEE7FEE7B5
:1083A000FEE7FEE704480549054A064B7047000012
:1083B000713F0108D9810008309B002030A10020C6
:1083C000309D0020309D002053EA020C00F06980AF
:1083D0002DE9F04B4FF00006002B1FBFB3FA83F5D9
:1083E00003FA05F424FA05F65E4012BF1643B2FA0A
:1083F00082F502FA05F4C5F120051EBF22FA05FC3C
:1084000044EA0C04203556EA044C4FEA144418BFE1
:10841000641C4FF000084FF00009904271EB030C10
:1084200039D3002919BFB1FA81F701FA07F6B0FA7A
:1084300080F700FA07F6C7F120071EBF20FA07FCF5
:1084400046EA0C062037B6FBF4FCA7EB0507103F05
:1084500007F01F0BCBF120060CFA0BFB2CFA06F6EB
:1084600044BFB3460026202FA4BF5E464FF0000B4A
:108470005BEA060C08BF4FF0010B19EB0B09ABFBD5
:10848000027C48EB0608C01B06FB02CC0BFB03CCAE
:1084900071EB0C01C1E70B46024641464846BDE878
:1084A000F08B13B54FF000004FF00001AFF30080E8
:1084B000BDE81C40704700000FB41CB5074B06AA6E
:1084C0007B4469460090059800F073F900206946E6
:1084D00000F082F91CBC5DF814FB000015030000DD
:1084E0002DE9F0410E460446002020622046E16856
:1084F000884730B3252805D0D4E901219047206A68
:10850000401CF2E7E168204600278847050018D0A4
:10851000A5F14100192802D820354FF400673246F2
:10852000294620462760FFF7B5FE40B1012804D058
:10853000F61D26F007060836D8E7361DD6E728468A
:10854000DAE7206ABDE8F0812DE9F0410646002413
:1085500010687529314616A510D0AFF300800028A9
:1085600002DA404213A507E031688A0701D512A557
:1085700002E0490704D511A5012401E0AFF3008012
:1085800000210A2206F1240709E0B0FBF2FCB0FB4F
:10859000F2F302FB1C00303078541846491C0028C6
:1085A000F3D123462A463046BDE8F04100F0A3B897
:1085B000000000002D0000002B0000002000000043
:1085C00040EA0103024630B59B0710D14FF0013459
:1085D00000E008C208C91D1B9D4315EAC41FF8D05E
:1085E00013F0FF0102F8011B0DD01B0AF8E711F888
:1085F000013B002B02F8013B05D011F8013B002B99
:1086000002F8013BF3D130BD032A40F2308010F074
:10861000030C00F0158011F8013BBCF1020F62441D
:1086200098BF11F801CB00F8013B38BF11F8013BAE
:10863000A2F1040298BF00F801CB38BF00F8013B5B
:1086400011F0030300F0CD80083AC0F0088051F823
:10865000043B083A51F804CBA0E80810F5E7121DD6
:108660005CBF51F8043B40F8043BAFF30080D207F5
:1086700024BF11F8013B11F801CB48BF11F8012BC1
:1086800024BF00F8013B00F801CB48BF00F8012BE4
:10869000704702F0FF0343EA032242EA024200F07D
:1086A000D4B84FF0000200B51346944696462039E0
:1086B00022BFA0E80C50A0E80C50B1F12001BFF49B
:1086C000F7AF090728BFA0E80C5048BF0CC05DF801
:1086D00004EB890028BF40F8042B08BF704748BF4F
:1086E00020F8022B11F0804F18BF00F8012B7047C3
:1086F0007047704770472DE9F0470D4699469246FE
:10870000044600F124080168880604D5E06921F0D8
:108710001001216000E00120A84201DD471B00E0BC
:108720000027A1697A1902EB0900081AA0612078D4
:10873000C00602D42046AFF30080002608E0D4E94A
:1087400001211AF806009047206A401C761C20621E
:108750004E45F4DB2078C0060AD52046AFF30080F2
:1087600006E0D4E9012130209047206A401C2062B5
:10877000381EA7F10107F4DC07E0D4E9012118F85D
:1087800005009047206A401C2062281EA5F10105C3
:10879000F3DC2046AFF300802078000602D50220EB
:1087A000BDE8F0870120FBE701694A1C02610878F7
:1087B000704700B58FB0CDE9013100210591054921
:1087C0007944CDE9031011466846FFF789FE0FB0E2
:1087D00000BD0000E5FFFFFF0A6802F8010B0A6018
:1087E000704710B5203AC0F00B80B1E81850203A1D
:1087F000A0E81850B1E81850A0E81850BFF4F5AF41
:108800005FEA027C24BFB1E81850A0E8185044BFCA
:1088100018C918C0BDE810405FEA827C24BF51F837
:10882000043B40F8043B08BF7047D20728BF31F82B
:10883000023B48BF11F8012B28BF20F8023B48BF7C
:1088400000F8012B70474FF000020429C0F012809D
:1088500010F0030C3FF427AFCCF1040CBCF1020F75
:1088600018BF00F8012BA8BF20F8022BA1EB0C01C8
:10887000FFF719BF5FEAC17C24BF00F8012B00F8A5
:10888000012B48BF00F8012B7047754600F02CF80B
:10889000AE4605006946534620F00700854618B0ED
:1088A00020B5FFF77FFDBDE820404FF000064FF0F8
:1088B00000074FF000084FF0000B21F00701AC4615
:1088C000ACE8C009ACE8C009ACE8C009ACE8C00934
:1088D0008D46704710B50446AFF300802046BDE8D2
:1088E0001040FFF7EBBC000000487047CC9A002016
:1088F00001491820ABBEFEE72600020070470000C9
:10890000464910B54A6822F440324A604A684368D2
:108910001A434A6001684A6822F480724A6001681A
:108920004A68036942EA03224A6001684A6822F001
:1089300040724A6001684A6883681A434A60016865
:108940008A6822F400628A6001688A68C3681A43F0
:108950008A60816A6FF07062D14201688A6822F091
:1089600070628A6001688A680CD0836A1A438A60E0
:1089700001688A6822F040528A6001688A68C36A86
:108980001A4301E022F040528A6001688A6822F0AE
:1089900002028A6001688A68037E42EA43028A60B2
:1089A00090F82010002901684A680FD042F4006254
:1089B0004A6001684A6822F460424A6001684A6875
:1089C000174C436A04EB43331A4301E022F400627C
:1089D0004A600168CA6A22F47002CA620168CA6AFF
:1089E000838B104C04EB03531A43CA6201688A68F4
:1089F00022F400728A6001688A6890F8303042EA96
:108A000043228A6001688A6822F480628A60016871
:108A10008A68406942EA8020886010BD00230140D6
:108A200000E0FFFF0000F0FF00F002F8FCE70000AC
:108A30002DE9FC5F14240025D74E00950195357073
:108A4000D64F75700221384603F0ECFCB07001215E
:108A5000384603F0E7FCF070B17811B93178491C61
:108A6000317010B97078401C707014200CF09CFEAE
:108A7000641E14F0FF04E5D13178DFF81CA3012453
:108A8000C74FDFF820834FF0120B0AF1800A4FF036
:108A90000A0911296AD97078112849D998F8000073
:108AA00030B30DF065FBCAF8100001F0FBFA88F84E
:108AB00000501120787000231A46BB49706F0DF0EA
:108AC00035F9BA480570BA480570BA480570306B78
:108AD0000CF09EFFB8488DF800B08DF80140007989
:108AE0008DF8020000222021B44803F0A8FC12E017
:108AF0000DF03EFBDAF810105546401AC82815D97B
:108B00000DF036FB2861AC488DF800B08DF80140BF
:108B100000798DF8020008236A46FF21A84800F07A
:108B20004DFDA8A20021032001F092FBBDE8FC9FAF
:108B300005281BD298F800000A28F7D09B4888F82F
:108B400000907C7005709A480570306B0CF060FFE7
:108B50009848002220210570984803F070FC0023FB
:108B60001A469149706F0DF0E1F8DFE70529DDD273
:108B700070780528DAD23079974928B1012840D099
:108B80000228D3D1357104E098F80000C8B10A2852
:108B9000CCD1087888F800007C700021306F0DF08F
:108BA00081F8306B0CF0BEFE01222021834803F0D7
:108BB00046FC00231A467C49706F0DF0B7F8B5717A
:108BC000B4E7087888F800007C700021306F0DF061
:108BD00069F8306B0CF0A6FE01222021774803F0E3
:108BE0002EFC8DF800B002208DF801007248082399
:108BF0006A4600798DF80200FF21714800F0DEFC22
:108C0000D7E798F80000E8B16A4805700DF0B0FAAF
:108C1000CAF8100001F046FA88F800501120787068
:108C20006248057062480570306B0CF0F1FE00225E
:108C30002021624803F003FC00231A465A49706F52
:108C40000DF074F80DF094FADAF81010401AB0F53F
:108C5000FA7F09D97079012801D010B103E075714C
:108C600001E002203071B560F279002AA8D000231B
:108C7000494C18460834B046215C914202D1012388
:108C8000042003E0194301D122540C20401CC0B23F
:108C90000328F1D30C287CD320784FF47A7764260C
:108CA00000B3B0FBF7F107FB1101B1FBF6F13A4A53
:108CB000303194321170B0FBF6F106FB11034946D6
:108CC000B3FBF1F330335370B0FBF9F309FB13003E
:108CD00030309070D5701021032001F0B9FA3FA216
:108CE000282101E040A20021032001F0B1FA6078C0
:108CF00000B3B0FBF7F107FB1101B1FBF6F1264A17
:108D0000303198321170B0FBF6F106FB1103494681
:108D1000B3FBF1F330335370B0FBF9F309FB1300ED
:108D200030309070D5701021052001F091FA2BA2FF
:108D3000282101E02CA20021052001F089FAA07869
:108D400010B3B0FBF7F107FB1101B1FBF6F1124ACA
:108D500030319C321170B0FBF6F106FB110349462D
:108D6000B3FBF1F330335370B0FBF9F309FB13009D
:108D700030309070D570121F1021072001F068FA72
:108D800016A2282102E004E017A20021072001F02A
:108D90005FFA88F80750C9E600000020000402408E
:108DA000AC0300209503002087030020E10C002085
:108DB000E20C00205E0F00207E0D00200008024023
:108DC0000C100020202020202020B1BEBCDCBCB133
:108DD000CDA32020200000008803002020BAC5BCBD
:108DE000B1CDA32020000000202020202020202022
:108DF0002020202020202020000000007CB50CF046
:108E0000FDFB0121002208460CF026FF9F4C0121AA
:108E10000022606408460CF01FFF0121A0640022BC
:108E200008460CF019FFE0640022032105200CF035
:108E300013FF2065002208210A200CF00DFF606559
:108E40000022082164200CF007FFA0650022082101
:108E500064200CF001FFE0650022082105200CF0E1
:108E6000FBFE0121A066002208460CF0F5FE012160
:108E70002066002208460CF0EFFE01216066002209
:108E800008460CF0E9FEE0660022082101200CF003
:108E9000E3FE20670022082102200CF0DDFE60675F
:108EA0000022102102200CF0D7FEA067002208212A
:108EB00014200CF0D1FE04F180050022686001212D
:108EC00002200CF0C9FEE0670022012102200CF014
:108ED000C3FE28600022012108200CF0BDFEA8601E
:108EE0000022082114200CF0B7FEE86004F1100104
:108EF0000F20CDE9000100234FF4807264A168487F
:108F00000DF0FCF804F114010D20CDE9000100235F
:108F1000802264A167480DF0F1F804F124010E20CD
:108F2000CDE900010023802263A168480DF0E6F836
:108F300004F13C010620CDE900010023802264A158
:108F400066480DF0DBF804F128010820CDE90001A6
:108F50000023802262A167480DF0D0F804F12C01B3
:108F60001420CDE900010023802263A167480DF0A1
:108F7000C5F804F130010920CDE900010023802269
:108F800063A168480DF0BAF804F11C011120CDE985
:108F900000010023802264A168480DF0AFF804F1BD
:108FA00018011020CDE900010023802264A16A4845
:108FB0000DF0A4F804F120000B25CDE900500023AA
:108FC000802266A16B480DF099F804F13400CDE9D8
:108FD00000500023802268A16E480DF08FF804F144
:108FE00038010C20CDE90001002380226AA16F48DE
:108FF0000DF084F804F140000A25CDE9005000236B
:1090000080226BA171480DF079F8E0680CF0F2FB5A
:1090100004F068FE00F060FA00F04EFB06F0E6FE99
:10902000092003F077FA142003F074FA4B2003F0C0
:1090300071FA272003F06EFA412003F06BFA6448BE
:109040006449654A007908706421B0FBF1F330335C
:109050001370B0FBF1F301FB1301B1FBF5F13031FB
:109060005170B0FBF5F105FB110030309070002419
:10907000D470234622460C21584801F097F95848ED
:109080000471BDE87C400CF0D9BA0000000000205B
:109090004D61696E5F4D656E755F5461736B000065
:1090A000B1EE000843414E5F53656E645F546173D7
:1090B0006B0000009D95000843414E5F526563655B
:1090C0006976655F5461736B000000007D95000850
:1090D0004C45445F5461736B0000000049E2000896
:1090E00053656E736F725F526563656976655F5431
:1090F00061736B00C11E01084162727570745F5329
:10910000746F705F5461736B00000000298A00085F
:10911000556E6974655F416374696F6E5F54617306
:109120006B000000D14501084661756C745F537493
:109130006174655F5461736B00000000C1A7000893
:1091400043414E5F4275735F526563656976655F43
:109150005461736B00000000C9940008466F6C6C8A
:109160006F775F4175746F6D6174696F6E5F546185
:10917000736B0000EDA70008496E74657266616349
:10918000655F4D69616E5F4C6F6769635F546173C2
:109190006B000000BDDE00084D4F56455F436F6E0B
:1091A00074726F6C5F5461736B00000059E90008C2
:1091B00053656375726974795F4D736E6167656D30
:1091C000656E745F5461736B00000000E11D01085F
:1091D0007E0D0020AC0C0020A80C0020E003002035
:1091E0008A0D00202DE9FC4700248E48009401944C
:1091F00041F288328A4900680CF0AAFE00283BD070
:10920000DFF81C820125884E98F80000874A884FB5
:109210004FF00209A8F109013B286FD02EDC262867
:1092200062D00BDC02286AD0122825D198F8010000
:10923000804A01284AD0022850D051E027285FD028
:10924000362819D17C4898F802107C4C417198F866
:1092500003207B4D627198F801206A710079764A8B
:1092600009F036FD61792079224609F031FD6979EE
:1092700028792A4609F02CFDBDE8FC87DFF8C4A157
:109280003F2804D014DC3C2870D03E28F4D16EA2D4
:109290002021052000F0DCFF4FF4FA700CF084FA76
:1092A00035703D7000231A466A49DAF800007EE006
:1092B000612876D0AA28DFD100F0F4FE66A2202132
:1092C000032000F0C5FF72B60BF0CEF965481570AB
:1092D000654A057098F80200107001E082F800906D
:1092E00041F8094F4C60C7E7012001F001FC0A205A
:1092F0000CF05AFA022001F0FBFBBDE737E059E021
:109300005A4998F801005A4A087098F802101170EA
:109310004FF47A72B0FBF2F302FB13036422B3FB47
:10932000F2F5544B30351D70B0FBF2F502FB15051C
:109330000A22B5FBF2F530355D70B0FBF2F502FBA9
:10934000150030309870DC704B48CF23D0220129B3
:1093500008D0002990D10370C22141708270C27080
:10936000047189E7C92101704370F7E710E086F8BE
:10937000009087F800903B208DF8000010798DF860
:10938000010008236A46EE213C4800F017F973E714
:109390003B48007830B100220123114601F0CEF99C
:1093A0006AE70EE000231A461D49364836E00CF005
:1093B000BDFC61E7344804703448047034480470DC
:1093C0005AE73878337898428DD198F801001279AD
:1093D000904288D1042038702E4805702E480D70B8
:1093E00080F80090042004F0D5FE00231A461949A5
:1093F000DAF800000CF09AFC094803210830002339
:109400000570417080F80290C570057198F80310DE
:1094100041718471C471014620481A460068C6E74C
:10942000110D002084000020880300207E0D002004
:109430009503002004000020C20E0020C80E00206A
:10944000CE0E002074000020B8FABBFACAA7B0DC28
:109450000000000087030020B3CCD0F2B8FCD0C2DB
:10946000000000000500002007000020800F002001
:10947000850F0020810F0020860F00200C10002097
:10948000770F00208C0000208B0300208C0300202D
:109490008A030020E60C0020060000207000002057
:1094A000FEE70000014802F076B90000E40F00205A
:1094B000014802F070B900000C100020014802F0D1
:1094C0006AB9000034100020FFF78CFE014802F05A
:1094D000C1FFF9E75C10002010B58AB0002001241C
:1094E00005906102CDE900100290CDE90640089494
:1094F00004900390099069461B4802F033F86946CE
:109500001A4802F02FF80E201949CDE904400979D4
:109510000990490100914FF4FF5101914FF4A0517E
:1095200002914FF4EF5103916946124802F01AF884
:109530000D4802F0CAFB0F4802F0C7FB0B4802F0CF
:10954000C4FB0221084801F08DFF1021094801F0F9
:1095500089FF0221054801F085FF074800210068C6
:109560000CF0A0FB0AB010BDE40F00203410002066
:109570007E0D00200C1000205C000020054C4FF0F8
:10958000FF352A460449A06D0CF0E2FC04F0C6FE4B
:10959000F7E7000000000020090D0020054C4FF007
:1095A000FF352A460449606D0CF0D2FC00F0E2FC65
:1095B000F7E7000000000020CD0C00202DE9FF5F40
:1095C00092461E4A00241F4626461160580700D0C6
:1095D000012000EBD7050820934607F007094FF458
:1095E0007A78106125E035B9780704D0CBF810906F
:1095F00001E0641CA4B2009802F0B7F808B9444531
:10960000F7D340F2E730844206D30D4901200870B9
:10961000032004B0BDE8F09F094B0AEB06021B1DB6
:109620000649009801F030FF08B10220F1E7083642
:10963000B6B228466D1EADB2D5D2EAE75814002066
:10964000AC00002070B5044604F0D6FAE009C0F37F
:109650004400402141EA400004F09CFA04F012FB6F
:10966000054D6870E0B204F095FA04F00BFB287029
:10967000BDE8704004F0E2BAA0000020C10406D5A5
:10968000062101EB1021034A01F007015054FFF7B6
:10969000D9BF0000A600002010B504F0ADFA4F209D
:1096A00004F078FA04F0EEFA002004F03FFA0446E1
:1096B00004F0C4FA204610BD10B540F20340FFF795
:1096C000C1FFBDE81040042004F064BD2DE9F05F47
:1096D000F84842F21072F64900680CF039FC002894
:1096E00073D0F34A002501241078F34FDFF8CCA3A0
:1096F000F34EDFF8D093DFF8D0B3012859D0F34907
:1097000002287DD0082860D15078112879D02228ED
:10971000FCD0212801D0122857D196465379EC4A23
:1097200092F804C0634505D391F8048000F00F025D
:10973000424507D0724663457BD8097900F00F0097
:10974000884276D09EF80200F046401E10F0FF00DE
:109750008EF8020005D000231A46D54938680CF06F
:10976000E5FADC49022000230870072089F8000090
:109770001520CF498AF801001A46183930680CF0D4
:10978000D5FA98F8020000281FD1CC4914200023F4
:1097900048700620C64989F800001A461839B246B2
:1097A00030680CF0C3FA464698F8040001F024FA39
:1097B0004DE3D17890780129904607D000287DD0DC
:1097C00001287CD0022800D18AE279E008B3012880
:1097D00030D0022874D199F80000042870D1B44F19
:1097E000DFF8F4B2183F7878E8B3012868D198F828
:1097F0000500F97888421BD1BC70DBF8000001E05D
:1098000000E373E205F0AEF8B4490878002858D1B7
:109810000FE1B0480570042004F0BCFC99F800107A
:1098200004294DD19BF8001089F800108AF80140F6
:109830001FE1DAE299F800109BF80000814211D193
:10984000A44902200870052004F0A4FC042089F833
:10985000000097498AF8014000231A4618393068F9
:109860000CF064FA00E011E098F80400012827D118
:109870008F4808380023047098F8011041708570F3
:10988000C470057145711A4601462DE27C7098F846
:109890000510F970BC700420A1468AF801000CF094
:1098A00067FCF860CBF8005098F805005C464FF470
:1098B000800A4FF4807B182822D203E0DEE0F5E135
:1098C000F5E0BCE0DFE800F08B0C13151D245C26EE
:1098D0002D383F464D545A6365676E8B75777E848D
:1098E0007FA18448FEF76CFE4FF4000007E082A1E0
:1098F00011E086A17F48FEF763FE4FF480102060E0
:109900006DE087A17B48FEF75BFE4FF40010F6E7A1
:1099100088A12EE08CA17748FEF752FEC4F800A083
:109920005DE08EA17348FEF74BFE25600CF020FC35
:10993000B86087F8049052E08DA16E48FEF740FEB3
:109940004FF40020DBE78FA16A48FEF739FE4FF4A1
:109950008020D4E790A16748FEF732FE4FF4003034
:10996000CDE792A16348FEF72BFE4FF48030C6E7A7
:1099700093A16048FEF724FE256030E095A1F8E74A
:1099800099A15C48FEF71CFE4FF40070B7E79BA15D
:10999000EFE79FA1EDE7A3A15648FEF711FE4FF4B4
:1099A0000050ACE7A4A15348FEF70AFE4FF48050E4
:1099B000A5E7A6A100E0AAA14E48FEF701FEC4F863
:1099C00000B00CE0ABA14B48FEF7FAFD022004E02A
:1099D000ADA14848FEF7F4FD012006F0F0FA20683A
:1099E00004F0C0FFADA1AE48FEF7EAFD304987F8AC
:1099F000059000234C461A46183930680CF096F949
:109A0000F879002853D12A48FC71083021210170CF
:109A10002F49082302460979417098F80510817092
:109A2000C470B9790171BDE8F05FEE219D48FFF780
:109A3000C5BDC87818B9C87908B9087A90B19A48EC
:109A4000D522057096480270FD224270B3228270C2
:109A5000A322C27020220271427185710D604D6097
:109A60000D8106E07879052802D8401C787100E065
:109A70007C7100230E491A46183945E2491E88F8C0
:109A8000031000231A460A4938680CF04FF999F878
:109A9000001004290BD1064918394978002906D14C
:109AA0008AF801409BF8001089F80010E1E79BE17B
:109AB000F80C00207000002054000020AC030020AF
:109AC000740000209503002088030020420D002030
:109AD0007E0D002006000020D4020020CE140020BD
:109AE0002020202020C9FDC1A2D6F920202020203E
:109AF00000000000309A00202020202020BDB5C1A9
:109B0000A2D6F920202020200000000020202020C4
:109B10002020D2C6BCDC2020202020200000000015
:109B2000202020202020CDC6C1EF20202020202072
:109B300000000000202020202020CCA7B5D7202026
:109B4000202020200000000020202020CCA7B5D716
:109B5000BDB5D6F9202020200000000020202020C4
:109B6000CCA7B5D7D2C6BCDC202020200000000046
:109B700020202020C9ECC6BDBAE2C1BA2020202096
:109B80000000000020202020CAD5C6BDBAE2C1BA1C
:109B900020202020000000002020202020C9ECB23E
:109BA000E0BBA42020202020000000002020202056
:109BB00020CAD5B2E0BBA420202020200000000055
:109BC000202020202020C9ECC7B0C1BA20202020AE
:109BD00000000000202020202020CAD5C7B0C1BA34
:109BE0002020202000000000202020202020C5E789
:109BF000CEED20202020202000000000202020206A
:109C0000C9ECBBA4B0EFB0E520202020000000008C
:109C100020202020CAD5BBA4B0EFB0E52020202012
:109C2000000000002020202020C9ECB5D7B5F72087
:109C300020202020000000002020202020CAD5B5B0
:109C4000D7B5F72020202020000000002020202071
:109C5000B1B8D3C3B6AFD7F7312020200000000041
:109C600020202020B1B8D3C3B6AFD7F732202020B0
:109C7000000000002020202020B7B4B3E5CFB4318D
:109C800020202020200000002020202020B7B4B376
:109C9000E5CFB4322020202020000000202000004A
:109CA000AD0C00200C100020D00000209B48057057
:109CB000052004F06FFA99F8001004290ED1984994
:109CC000497859B99BF8001089F800108AF80140CA
:109CD00000231A46924930680CF028F898F80310CF
:109CE000491E88F8031088E038680EE18D4B9646CF
:109CF00052791B799A4205D391F8048000F00F0C39
:109D0000C44506D09A426FD8097900F00F00884206
:109D10006AD09EF80200401E10F0FF008EF802008C
:109D200006D07F4900231A46183138680BF0FEFF31
:109D30007A49022000230870072189F800101520B5
:109D40008AF801001A46764930680BF0EFFF744834
:109D500018308178C078491C814245D114208AF896
:109D60000100062089F80000C84600231A466C4905
:109D7000B14630680BF0DAFF694E1836307900F0E2
:109D80003BFF98F8000006280ED1F0784FF0020152
:109D9000401E10F0FF00F070317005D000231A460D
:109DA000314638680BF0C2FF5F4800231A46057041
:109DB0009BF8001088F8001058488AF801405B4969
:109DC0000570D9F80000A0E0574800231A46057036
:109DD00057489BF8001089F8001044704F485349C9
:109DE0000570DAF8000090E090E0D0789178401AA1
:109DF000D070957002208EF80000002348491A4662
:109E0000183171E710799046203807287ED2DFE8B4
:109E100000F0042F2F2F042F2F0099F8001007298E
:109E200079D1434A142100235170062189F800108A
:109E30001A463B49B24630680BF078FF464698F820
:109E4000040000F0D9FE99F800000628BCD1F07893
:109E50004FF00201401E10F0FF00F0703170B3D0DF
:109E60002F4900231A46183138680BF05FFFABE723
:109E7000304802789BF8000082424CD1294A98F879
:109E8000050043461279904207D393F801C091F838
:109E900004800CF00F0CC44507D090423BD8587892
:109EA000097900F00F00884235D0D8789946401ED5
:109EB00010F0FF00D87006D0194900231A46183157
:109EC00038680BF033FFDFF854800221194F88F80F
:109ED00000100620387014208AF8010000231A466A
:109EE0000F4930680BF022FF99F8040000F084FE5F
:109EF0000D4800230D4905709BF8000038708AF862
:109F0000014088F800501A46306800E003E0BDE8E0
:109F1000F05F0BF00BBFBDE8F09F000006000020D3
:109F2000E00C00207E0D00208E030020870300201F
:109F3000AC03002095030020F0B50D4BFF22DC1C84
:109F40005A709A7003F2031509E010F8012B5E783D
:109F50009F787240A65C7E405E70AA5C9A70491E33
:109F600089B2F2D29878597840EA0120F0BD000019
:109F7000D000002070B5474B002019461A78497868
:109F8000102A77D00BDC434C0A2A04F108042BD2A8
:109F9000DFE802F02A13222B2A42201E616B3E4882
:109FA000C03A0E2A00791FD2DFE802F04B4B1E4B5D
:109FB0001E4B1E1E1E1E50505050195C2154401C3A
:109FC000C0B20628F9D36078012803D002280BD14B
:109FD000082354E0082355E01129FBD01229F9D0B9
:109FE0002129F5D02229F3D070BD227061709878B4
:109FF000A070D878E070FF29F6D10120254A607062
:10A000000823083210212548FFF7D8FA0220607093
:10A0100013E01021224838E0195C2154401CC0B2E2
:10A020000828F9D306201B4A207008230832102183
:10A030001A48FFF7C3FA07202070164A082308328F
:10A04000E7E70228C4D00128C4D070BD0228C1D0DF
:10A050000128BDD070BD1129BCD01229B8D021294A
:10A06000B8D02229F6D1B3E704E00129B2D0022901
:10A07000AED070BD012904D00229FAD10523054ACA
:10A08000C7E70523034A05481021BDE87040FFF7E4
:10A0900095BA0000CD0C0020420D002034100020A5
:10A0A000E40F002070B500256D1CE8B201210AF014
:10A0B00095FB0024002005F060FF641CE4B2802CB6
:10A0C000F8D3EDB2082DEFD370BD0000014801F0C8
:10A0D0008DBE000078120020014801F087BE00000C
:10A0E00018120020014801F081BE0000D8120020A3
:10A0F000014801F07BBE000038130020014801F048
:10A1000075BE0000F8130020014801F06FBE00008A
:10A110009813002001681823CAB2103AB2FBF3F278
:10A12000054B6FF30901032A9B5CC36500D9091D28
:10A130008165084670470000D264010810B50146E9
:10A1400000208B698A6A4FF0C07453B1B3F5005F89
:10A1500015D072B1012A0CD0022A0AD0032A09D1E3
:10A1600004E01AB1012A06D0022A03D1C96AC90142
:10A1700000D5012010BDC96AA142FAD010BD002A45
:10A18000F7D0012AF2D0022AF3D0032AF3D010BD6F
:10A1900030B50468256825F480252560046863606F
:10A1A0008368402B036803D099600068C26030BDAB
:10A1B0009A600068C16030BD70470000F0B5204D66
:10A1C00000230126EB7000F00F031E485418077996
:10A1D0001D48BB42007915D0431A5C1E1144E7B2FA
:10A1E000491CAF70012C04DB884202D82F706E70BE
:10A1F00023E0884202D92A70981A19E0012B1BD05B
:10A20000D0B11AE04B1C0344AB70104B93F804C060
:10A21000ACEB00035F1A012F05DBA34203DC2F70B8
:10A2200085F801C009E0A34204DD11442A70084406
:10A23000687002E08B4200D1EE700148F0BD000072
:10A24000730F0020420D00207E0D0020300D0020F5
:10A250002DE9F041491C88B014468046CEB2002555
:10A260004FF402573BE0A02823D9A0F1A001627867
:10A2700001EBC10303EB011102EB8101C0F1B0005E
:10A280004FF6A26202EB8000084480B2B84200D9C7
:10A29000002041012022684606F07CFD6A463146D6
:10A2A00040460AF00FFA10366D1CF6B2EDB2641C8F
:10A2B00010E0203880B2B84200D9002001011022FD
:10A2C000684606F067FD6A46314640460AF014FAD1
:10A2D0000836F6B26D1CEDB2641C102D02D0207849
:10A2E0000028C0D108B0BDE8F0812DE9F04790B05A
:10A2F000491C14468246CEB200254FF402596F46DF
:10A300000DF120084BE0A0282BD9A0F1A001627824
:10A3100001EBC10303EB011102EB8101C0F1B000BD
:10A320004FF6A26202EB8000084480B2484500D993
:10A33000002041012022684606F02CFD0020424604
:10A34000395CC9431154401C2028F9DB08AA314666
:10A3500050460AF0B7F910366D1CF6B2EDB2641C27
:10A3600018E0203880B2484500D9002001011022B1
:10A37000684606F00FFD002041463A5CD2430A547D
:10A38000401C1028F9DB08AA314650460AF0B4F9FF
:10A390000836F6B26D1CEDB2641C102D02D0207888
:10A3A0000028B0D110B0BDE8F08700002DE9F041E1
:10A3B0000E46044652B1012A16D1514F3878012871
:10A3C00014D06DD998426BD2002566E0002509E0D3
:10A3D00004EBC5004178426814F83500FFF738FFF8
:10A3E0006D1CEDB2B542F3D3BDE8F081002528E045
:10A3F00014F8350050B1397888420DD104EBC5000E
:10A40000417842680320FFF770FF18E004EBC500B5
:10A4100041784268012010E04A1C904205D104EBCB
:10A42000C50041784268052007E0891C884206D1B2
:10A4300004EBC500417842680720FFF709FF6D1C57
:10A44000EDB2B542D4D3CFE714F8350048B139782E
:10A450004A1E90420BD104EBC500417842680320AC
:10A4600017E004EBC50041784268012011E0884202
:10A4700007D104EBC500417842680520FFF735FF9E
:10A4800009E0491C884206D104EBC50041784268C6
:10A490000720FFF7DDFE6D1CEDB2B542D4D3A3E774
:10A4A0009842A1D1002528E014F8350048B1397848
:10A4B0008A1E90420BD104EBC5004178426803200C
:10A4C0000DE004EBC50041784268012007E04A1E18
:10A4D000904207D104EBC500417842680520FFF7A0
:10A4E000B7FE08E0884206D104EBC5004178426817
:10A4F0000720FFF7FAFE6D1CEDB2B542D4D373E727
:10A50000AC030020082001F0A1BE72B6FEE70000F7
:10A51000002229B101291AD002291BD04FF4407220
:10A520000E490B6823F440730B600B6813430B60F8
:10A530000A6822F078020A600A68022303EBC0006E
:10A5400002430A60086840F48030086070474FF4A6
:10A550008072E5E74FF40072E2E70000103C024031
:10A560001348016889050FD5016821F40071016065
:10A57000016841F400610160016821F4006101603B
:10A58000016841F400710160016849050FD5016857
:10A5900021F480610160016841F48051016001682B
:10A5A00021F480510160016841F4806101607047CD
:10A5B000003C024008490A6822F440720A600A68B6
:10A5C00042F004020A600A684FF4803343EA002034
:10A5D00002430A6070470000103C0240064A1368BC
:10A5E00023F44073136013681360136843F001038E
:10A5F0001360017070470000103C0240094910B51B
:10A600000C6824F440740C600C6844F440740C60D2
:10A610000C6844F001040C600260BFF36F8F43606C
:10A6200010BD0000103C0240074A136823F4407339
:10A630001360136843F480731360136843F00103DD
:10A640001360018070470000103C0240074A136805
:10A6500023F440731360136843F4007313601368AA
:10A6600043F001031360016070470000103C02409A
:10A670001C490868C2061C4805D5C26942F0100290
:10A68000C26110220A600A68920605D5C26942F0CA
:10A690000802C26120220A600A68520605D5C26912
:10A6A00042F00402C26140220A600A68120605D51F
:10A6B000C26942F00202C26180220A600A68D205C1
:10A6C00006D5C26942F00102C2614FF480720A608D
:10A6D0000A68920705D5C26942F02002C2610220D1
:10A6E000086070470C3C0240AC9A002070B51149DC
:10A6F00004460020C86101F0A7FE05460E4E09E0A1
:10A70000601C07D024B101F09FFE401BA04201D97C
:10A71000032070BD3068C003F2D43068C00701D098
:10A7200001203060306810F4F970F2D0FFF7A0FF1C
:10A73000012070BDAC9A00200C3C02401CB50024E6
:10A740000094019421248DF800400B4C24798DF85D
:10A7500001408DF8020002208DF804008DF80510EC
:10A760008DF803308DF8062008236A46EE21034851
:10A77000FEF724FF1CBD00007E0D00200C10002001
:10A780007CB50024009421258DF800500A4D0194D9
:10A790002D798DF801508DF804408DF802008DF868
:10A7A00005108DF803308DF8062008236A46EE2147
:10A7B0000248FEF703FF7CBD7E0D00200C10002038
:10A7C000094C4FF47A76002530460AF0EDFF2078E8
:10A7D0000128F9D104F068F904F086F904F044F98D
:10A7E000FEF77AFE2570EFE7AC00002000F002F8DB
:10A7F000FCE700002DE9F84F9B484FF0FF329949E4
:10A8000000680BF0A5FB994D9948297800788142A2
:10A8100008D104202870974802210026017096482C
:10A82000172141708F4C954F4FF6FF7BA078A4F114
:10A83000010A4FF00A094FF00008312835D03228BC
:10A8400076D0332830D128780428FBD133218AF8F8
:10A8500000100022012311463320FFF76FFFE0783C
:10A860004FF4007B00EB8000440016E0584604F0F3
:10A8700079F8B6FBF9F109FB116048B980A1854868
:10A88000FDF79EFE00231A46834938680BF04EFA06
:10A89000761CF6B264200AF087FFA64202D228781E
:10A8A0000428E3D08AF80080C7E028780428FBD188
:10A8B0000022012311463120FFF740FFE078217983
:10A8C0000BEA0020084475498B460A88104484B27C
:10A8D00031228AF800204FF4001000901BE000980D
:10A8E00004F040F8B6FBF9F109FB116048B96CA11E
:10A8F0006848FDF765FE00231A46674938680BF083
:10A9000015FABBF80000A04200D36426761CF6B20C
:10A9100064200AF049FF462E02D228780428DED0AF
:10A9200000238AF800801A461946312081E0FFE7AB
:10A93000287804287ED10022012311463220FFF717
:10A94000FDFEE07821790BEA00200844322186B22E
:10A950008AF800104FF4800B002418E0584604F0E9
:10A9600001F8B4FBF9F109FB114048B951A149487C
:10A97000FDF726FE00231A46474938680BF0D6F942
:10A98000641CE4B264200AF00FFF142C02D2287871
:10A990000428E3D04FF480100024DFF800B10090C9
:10A9A0001DE0009803F0DEFFB4FBF9F109FB114054
:10A9B00048B945A13748FDF703FE00231A4636493A
:10A9C00038680BF0B3F9BBF80000B04200D864243B
:10A9D000641CE4B264200AF0E7FE462C02D2287818
:10A9E0000428DED000244FF4000B4E4618E05846F1
:10A9F00003F0B8FFB4FBF6F006FB104048B937A1EE
:10AA00002448FDF7DDFD00231A46234938680BF082
:10AA10008DF9641CE4B264200AF0C6FE142C02D244
:10AA200028780428E3D000238AF800801A461946C3
:10AA3000322000E001E0FFF781FE0F480121417064
:10AA40000B480C490078287081F80080042003F03E
:10AA5000A1FB386801B00023BDE8F04F1A460E494B
:10AA60000BF064B9780F00208C00002095030020C3
:10AA70008803002006000020AC03002074000020A2
:10AA8000202020202020C5E7CEED202020202020DF
:10AA900000000000309A002087030020F499002075
:10AAA000202020202020CDC6C1EF202020202020E3
:10AAB00000000000202020202020BDB5D6F9202055
:10AAC0002020202000000000202020202020D2C6AE
:10AAD000BCDC20202020202000000000202020209E
:10AAE0002020C9FDD6F920202020202000000000D1
:10AAF0002DE9FC4100233C4A009301933B4C127921
:10AB00001946012802D002281DD064E023208DF8C8
:10AB100000008DF801203648A2788DF802200188C7
:10AB20008DF80410080A8DF8030031480A380088AF
:10AB3000050A8DF805508DF806008DF80730608104
:10AB4000A181228147E02A48143085782B2D00D13D
:10AB50000121274F0A37BD782B2D01D141F0020189
:10AB6000234D1E35AE782B2E01D141F00401204E2D
:10AB7000283696F802C0BCF12B0F01D141F0080134
:10AB80004FF0240C8DF800C08DF801208DF80210D4
:10AB900001886420B1FBF0F28DF803203A88B2FB03
:10ABA000F0F78DF804702D88B2FBF0F2B5FBF0F7EA
:10ABB0008DF805703688B6FBF0F78DF806708DF8C5
:10ABC0000730E281B1FBF0F12182B5FBF0F1618247
:10ABD000B6FBF0F0A08208236A46EE210548FEF796
:10ABE000EDFCBDE8FC8100007E0D00205803002034
:10ABF000FE9900200C1000202DE9F05FF24F002498
:10AC0000A0F120017879DFF8C483F14E25464FF496
:10AC1000000B4FF4800942F20F7A07297CD2DFE85B
:10AC200001F004CCFE7BFDFCFB00EA4840790128E2
:10AC300072D1E9480579E948007910B9E84900205E
:10AC40000870E8484FF47A71007910FB01F00AF0BF
:10AC5000ABFDE5484F460079012800D1E34F0123C1
:10AC6000002206210220FFF78BFDDFF8848309E034
:10AC7000384603F077FE00F0E1F9641CA4B26420CA
:10AC80000AF092FD98F8040000EB8000B4EB400F4E
:10AC900004D230780628EBD00528E9D0D548D6492B
:10ACA0000088097988421DD2E5B16D1E15F0FF0FAD
:10ACB00018D04D46002409E000F0C0F9284603F002
:10ACC00051FE641CA4B264200AF06EFD98F80400E2
:10ACD00000EB8000B4EB400F04D230780628EBD0B4
:10ACE0000528E9D000231A4619460220FFF748FD3F
:10ACF000DFF8F48200244FF4801598F8040001284E
:10AD000000D1BE4D0022012311460320FFF738FD7C
:10AD1000DFF8EC92574615E0B4E0284603F022FE37
:10AD200000F08CF9641CA4B264200AF03DFDB54823
:10AD30000188B5488088814204D899F80400012828
:10AD400000D13C46B148007900EB8000B4EB400FE5
:10AD500004D230780628E0D00528DED000231A4639
:10AD600019460320FFF70CFD98F8040000245D4607
:10AD7000012800D1A64D0123002211461846FFF7F5
:10AD8000FFFCA44F09E0284603F0ECFD00F056F963
:10AD9000641CA4B264200AF007FD387900EB80003F
:10ADA000B4EB400F04D230780628ECD00528EAD066
:10ADB000002306211A46012044E0974840790128E3
:10ADC00060D1904F95484FF42F75398880884FF4A3
:10ADD000001B0844A84200D285B20022012311467C
:10ADE0000420FFF7CDFCB9465746DFF81482DFF8A0
:10ADF00030A217E0584603F0B5FD00F01FF96420BB
:10AE00000AF0D2FC641CB9F80000A4B2A84209D32D
:10AE100098F80400012803E0BBE0A0E034E015E06E
:10AE200000D13C469AF8040000EB8000B4EB400FE0
:10AE300004D230780628DDD00528DBD000231A465E
:10AE400019460420BDE8F05FFFF79ABC75484079C9
:10AE5000012817D10705744D09E0384603F082FD3B
:10AE600000F0ECF864200AF09FFC641CA4B228797E
:10AE700000EB8000B4EB400F04D230780628ECD011
:10AE80000528EAD0BDE8F09F684840790128F9D14B
:10AE9000674D09E0484603F065FD00F0CFF86420F7
:10AEA0000AF082FC641CA4B2287900EB8000B4EBA9
:10AEB000400F04D230780628ECD00528EAD00024D0
:10AEC000A246DFF8709109E0504603F04BFD00F018
:10AED000B5F864200AF068FC641CA4B299F8040078
:10AEE00000EB8000B4EB400F04D230780628EBD0A2
:10AEF0000528E9D078790024012818D14FF00009FD
:10AF0000474609E0484603F02DFD00F097F864201D
:10AF10000AF04AFC641CA4B2387900EB8000B4EB60
:10AF2000400F04D230780628ECD00528EAD000245F
:10AF30005F4609E0384603F015FD00F07FF8642015
:10AF40000AF032FC641CA4B22879C0EB0010A042C5
:10AF500098D930780628EDD00528EBD092E7012863
:10AF600090D1354F09E0284603F0FCFC64200AF03C
:10AF70001BFC641CA4B200F061F8387900EB80007F
:10AF8000B4EB400FEAD230780628ECD00528EAD09E
:10AF900078E70128E2D1474609E0284603F0E2FCC1
:10AFA00064200AF001FC641CA4B200F047F8387970
:10AFB00000EB8000B4EB400FD0D230780628ECD004
:10AFC0000528EAD05EE70000E90E00208C0E002084
:10AFD00095030020D40E0020080E0020C60D00208E
:10AFE00006000020F00D0020380E00200002400076
:10AFF000F60D0020FE990020D20D00200002100066
:10B00000960D0020F4990020460F0020140E002019
:10B0100000028000260E0020DB0E00204E0F0020D4
:10B02000500E0020F00E0020920E0020E20E0020B4
:10B03000740E00206E0E0020860E002070B5114D9B
:10B0400000242878052816D10FA200210720FFF739
:10B05000FFF84FF4966606E0641CA4B264200AF080
:10B06000A3FBB44202D228780528F5D02878052819
:10B0700001D106202870BDE87040002104A20720FD
:10B08000FFF7E6B895030020D4DDCDA30000000053
:10B09000202020200000000078B50024009490F8C3
:10B0A0003C20012A19D0012280F83C200A6807259B
:10B0B0000368092A13D9DE680A3A02EB4202954076
:10B0C000AE43DE600A788B680A3A02EB4202934094
:10B0D0000268D5682B43D36010E0022078BD1E695A
:10B0E00002EB42029540AE431E610A788B6802EB88
:10B0F00042029340026815692B4313614A681F2579
:10B10000072A13D203685E6B521E02EB820295403F
:10B11000AE435E630A8893B20A79521E02EB820242
:10B1200093400268556B2B43536327E003680D2A55
:10B1300012D21E6BD21F02EB82029540AE431E63F9
:10B140000A8893B20A79D21F02EB82029340026806
:10B15000156B2B43136311E0DE6A0D3A02EB82029A
:10B160009540AE43DE620A8893B20A790D3A02EB4B
:10B17000820293400268D56A2B43D3621B4B056859
:10B18000194A9D420AD10D68122D07D1556825F440
:10B1900000055560556845F48005556005689D4279
:10B1A0001DD1134D0B68AB4201D0112B17D1536841
:10B1B00023F480035360536843F400035360096829
:10B1C000A9420CD10B490C4A0968B1FBF2F101EB21
:10B1D0008101490000E0491E00910029FBD180F85F
:10B1E0003C40002078BD00000023014000200140C9
:10B1F00012000010980F002040420F0070B50400AC
:10B200004FF0000603D0206C002510B107E00120AC
:10B2100070BD204600F01CF8656484F83C50206C3A
:10B22000C00610D4206C20F4885040F00200206446
:10B230002046FDF765FB6564206C20F0020040F0BD
:10B240000100206400E0012684F83C50304670BDC7
:10B2500010B586B0044614216846FDF722FA11495C
:10B26000206888421CD110480021026842F4807294
:10B270000260006800F4807005900B481438026882
:10B2800042F001020260006800F0010005900E200B
:10B2900000900320CDE901016946044800F0E2FF77
:10B2A00006B010BD002001404438024000000240BA
:10B2B0002DE9F041044600680D4681684FF0000713
:10B2C00049050BD58068C00508D5206C40F02000EA
:10B2D000206484F83C700120BDE8F08101F0B4F8EE
:10B2E000064613E0681C11D025B101F0ADF8801BB3
:10B2F000A8420BD920680068800707D4206C40F072
:10B300000400206484F83C700320E5E720680068AE
:10B310008007E7D521686FF012000860206C40F4C8
:10B32000007020642068816811F0405F13D1217E95
:10B3300089B9C16A11F4700F02D0806840050AD43F
:10B34000206C20F480702064206CC00403D4206C36
:10B3500040F0010020640020BEE7000018B5002284
:10B36000009290F83C10012907D0012180F83C1090
:10B3700001688B68DB0702D011E0022018BD8B68E2
:10B3800043F001038B602449244B0968B1FBF3F1BE
:10B3900001EB410100E0491E00910029FBD1016849
:10B3A0008B68DB072ED0036C40F20164A34343F4A7
:10B3B000807303644B685B0505D5036C23F400536D
:10B3C00043F480530364036CDB0404D5436C23F023
:10B3D0000603436400E0426480F83C20104A6FF0AA
:10B3E00022030B6051680068C90602D00D498842EB
:10B3F00010D1816811F0405F0CD1816841F080412B
:10B40000816007E0016C41F010010164416C41F082
:10B4100001014164002018BD980F002040420F0038
:10B42000002301400020014090F83C1001290CD07D
:10B43000012180F83C1001688A6822F001028A60CC
:10B4400001688968C90702D007E002207047016CD3
:10B4500021F4885141F001010164002180F83C1081
:10B460000846704790F82020012A07D0022A05D00C
:10B47000416A41F4802141620120704700684269BD
:10B480000A43426100207047F0B590F820500468EC
:10B49000A468012D05D0022D03D0416A41F480211A
:10B4A0005DE014F0406F01D1E50055D5C4F30164AF
:10B4B000022C03D9416A41F4000150E00125A54066
:10B4C0001D608B684FF4C0759BB1CE6833434E68E6
:10B4D00043EAC603066805EB0417F3514FF4C27341
:10B4E000076803EB04130E69FE50097D012905D09E
:10B4F00009E00E88CB6843EA4653EBE70168CE5873
:10B5000046F48076CE501179D379567941EA0361B9
:10B5100093791B0443EA062319434FF4C676036864
:10B5200006EB041699511178D37841EA03619378B8
:10B5300052781B0443EA022211434FF4C473026899
:10B5400003EB0413D150006805EB0411425842F09C
:10B55000010242500020F0BD416A41F400114162F5
:10B560000120F0BD10B590F820300268012B07D003
:10B57000022B05D0416A41F480214162012010BDB7
:10B580003D4C3E48A24200D00246D2F8003243F081
:10B590000103C2F8003282420CD1D2F8000220F43A
:10B5A0007C50C2F80002D2F800024B6A40EA032045
:10B5B000C2F80002087D00F01F0301209840D2F875
:10B5C0001C328343C2F81C32CB69B3B9D2F80C32B7
:10B5D0008343C2F80C328C894B6864F31F434C6977
:10B5E00002EBC404C4F840320C890B6864F31F43B7
:10B5F0004C6902EBC404C4F84432CB69012B16D168
:10B60000D2F80C320343C2F80C320C884B6864F356
:10B610001F434C6902EBC404C4F840320C89CB6868
:10B6200064F31F434C6902EBC404C4F844328B69D1
:10B63000002BD2F804320ED00343C2F804320B6957
:10B64000002BD2F8143208D00343C2F81432096A2E
:10B65000012904D008E08343EFE78343F5E7D2F8FC
:10B660001C120143C2F81C12D2F8000220F00100A3
:10B67000C2F80002002010BD006C004000640040D1
:10B68000704730B590F82040012C05D0022C03D033
:10B69000416A41F480215DE00468002955D02469A5
:10B6A000A40754D04FF4D874056804EB01142D5945
:10B6B00015F00405956005682D594ED0ED085560CC
:10B6C00005682C5904F00204D4604FF4DA7405685C
:10B6D00004EB01142D5905F00F05156105682D596E
:10B6E000C5F30725956105682C59240C54614FF466
:10B6F000DC72046802EB0112A4581C700468A458A0
:10B70000240A5C700468A458240C9C700468A25835
:10B71000120EDA704FF4DE72046802EB0112A458C4
:10B720001C710468A458240A5C710468A458240C91
:10B730009C710468A258120EDA71006881B1016927
:10B7400041F020010161002030BDE468A8E7416AB2
:10B7500041F400114162012030BD6D0D1560AFE76D
:10B76000C16841F02001C160EDE70246002092F877
:10B770002010012901D002290CD111688A685201D8
:10B7800000D501208A68120100D5401C8968C900D3
:10B7900000D5401C70472DE9F05F05460068002485
:10B7A0004669D0F804908768D0F80CB0D0F810A0A3
:10B7B000D0F81880F10748D0F90714D00121816032
:10B7C000B80703D5284600F0ACFA0CE0780702D59C
:10B7D0004FF4006407E0380702D54FF4805402E0CC
:10B7E000284600F09DFAF80516D529684FF48070B8
:10B7F0008860B80503D5284600F095FA0CE0780576
:10B8000002D544F4005407E0380502D544F48044DE
:10B8100002E0284600F086FAF80316D529684FF4AE
:10B8200080308860B80303D5284600F07EFA0CE02B
:10B83000780302D544F4004407E0380302D544F409
:10B84000803402E0284600F06FFA300707D55FEA3F
:10B85000CB6004D52968102044F40074C8607007D8
:10B860004FF0080707D55FEA0B7004D52868C7605A
:10B87000284600F0A9F9B00706D52868C0688007F7
:10B8800002D0284600F0A2F9700607D55FEACA6028
:10B8900004D52968102044F480640861B00607D5F7
:10B8A0005FEA0A7004D528680761284600F0C8F9E5
:10B8B000F00606D528680069800702D0284600F007
:10B8C000C1F9B00308D55FEAC96005D52968102021
:10B8D0004860284600F0F8F9F00307D55FEA0970E0
:10B8E00004D528684760284600F020FA300446D581
:10B8F0005FEA497040D5F00504D55FEAC87001D011
:10B9000044F00104B00504D55FEA887001D544F025
:10B910000204700504D55FEA487001D544F00404C0
:10B92000300529D518F0700F26D008F07000402897
:10B9300015D006DC102809D020280AD0302816D1CE
:10B940000AE050280ED0602811D10EE044F008041F
:10B950000DE044F010040AE044F0200407E044F055
:10B96000400404E044F0800401E044F4807428685A
:10B97000816921F070018161296804204860002CF0
:10B9800005D0686A204368622846FFF779FEBDE863
:10B99000F09F70B5040003D094F8200010B104E0CB
:10B9A000012070BD204600F081F82068016841F058
:10B9B0000101016000F048FD0546052604E000F0A5
:10B9C00043FD401B0A2811D820684068C007F6D004
:10B9D0002068016821F00201016000F035FD054694
:10B9E0000BE000F031FD401B0A2806D9606A40F4E4
:10B9F0000030606284F82060D2E7206840688007E9
:10BA0000EFD4207E0128206801683DD021F080011C
:10BA10000160607E01282068016838D021F0400173
:10BA20000160A07E01282068016833D021F0200148
:10BA30000160E07E0128206801682ED041F01001ED
:10BA40000160207F01282068016829D021F00801C9
:10BA50000160607F01282068016824D021F0040182
:10BA60000160D4E902010843D4E9041211430843F8
:10BA70006168491E08432168C86100206062012096
:10BA800084F82000002070BD41F08001C0E741F043
:10BA90004001C5E741F02001CAE721F01001CFE7DE
:10BAA00041F00801D4E741F00401D9E7F0B587B0CF
:10BAB000044614216846FCF7F4FD3D493B4F2068DD
:10BAC00000233B4A1039032402250926B8421FD11E
:10BAD000106840F000701060106800F00070059071
:10BAE000086840F0400008600868CDE9004500F0B3
:10BAF0004000CDE90460CDE9023469462D4800F0EC
:10BB0000B1FB00220A21142000F012FD142023E0D2
:10BB1000294FB84224D1106840F08060106010684E
:10BB200000F080600590086840F002000860086836
:10BB300002AF00F0020005904FF44050CDE900053F
:10BB400087E8580069461D4800F08CFB00220A2156
:10BB5000412000F0EDFC412000F0DCFC07B0F0BD1E
:10BB6000174EB042FAD1106840F0006010601068C3
:10BB700000F000600590086840F001000860086867
:10BB8000029300F0010005904FF40140CDE900055B
:10BB90000B20CDE9034069460A4800F063FB002210
:10BBA00009214B2000F0C4FC4B20D5E70064004085
:10BBB0004038024000180240006800400004024083
:10BBC000006C0040000002407047000070B5044661
:10BBD00000681449144D88420CD1144B144A0021BA
:10BBE0001448FFF74EFD114A0023121F111D28684B
:10BBF0000AF04EF910492068884211D10B4B0C4ACB
:10BC00001033383200210D48FFF73BFD2868074A02
:10BC1000BDE870400023121F02F114010AF038B988
:10BC200070BD00000064004058000020B8000020F3
:10BC300070140020E40F0020006C0040341000203D
:10BC40007047000010B501681548814226D1154B98
:10BC5000154A01211548FFF714FD1548114A002324
:10BC60000C3A104900680AF013F90E480078AA2827
:10BC700014D1FEF717FA0FA220210320FEF7E8FAED
:10BC800072B6BFF34F8F0E4801680E4A01F4E061AF
:10BC900011430160BFF34F8F00BFFDE710BD0000EF
:10BCA00000680040C00000208C1400200C10002010
:10BCB00084000020B3CCD0F2B8FCD0C20000000059
:10BCC0000CED00E00400FA05704770B5044690F8EA
:10BCD0002000012804D0606A40F40020606217E070
:10BCE000022084F820002068016821F00101016031
:10BCF00000F0AAFB05460DE000F0A6FB401B0A2859
:10BD000008D9606A40F400306062052084F82000A1
:10BD1000012070BD20684068C007EDD1606270BD31
:10BD200070477047704770477047704770472DE9FC
:10BD3000F0410446876D00F087FB054694F8350016
:10BD40000026022806D08020606584F83460012037
:10BD5000BDE8F0812068016821F0160101602068CB
:10BD6000416921F080014161206C08B9A06C20B1CB
:10BD70002068016821F0080101602068016821F055
:10BD8000010101600CE000F05FFB401B052807D9B2
:10BD900020206065032084F8350084F83460D7E7FC
:10BDA00020680068C007EED194F85C103F208840FE
:10BDB000B860012084F8350084F834600020C7E7BB
:10BDC00090F83510022903D0802141650120704789
:10BDD000052180F835100068016821F0010101603B
:10BDE0000020704790F83500704700002DE9F843B7
:10BDF00004464FF00009CDF8009063484FF4165107
:10BE0000A56D0068B0FBF1F72E6894F85C2008215E
:10BE100001FA02F030420FD02068026852070BD5B9
:10BE2000026822F00402026094F85C008140A9607C
:10BE3000606D40F00100606594F85C104FF00108FF
:10BE400008FA01F0304208D021684969090604D592
:10BE5000A860606D40F00200606594F85C100420FA
:10BE60008840304208D021680968890704D5A86055
:10BE7000606D40F00400606594F85C10102088400C
:10BE8000304218D021680968090714D5A8602068D5
:10BE90000168490304D50068000308D5A16C07E0D8
:10BEA0000168C90503D4016821F008010160216C13
:10BEB00009B12046884794F85C1020208840304221
:10BEC00031D021680968C9062DD5A86094F83500DD
:10BED00005282068016806D0490347D5006800039B
:10BEE0001DD4616C1CE021F01601016020684169DD
:10BEF00021F080014161206C08B9A06C20B120685C
:10BF0000016821F00801016094F85C103F2088402E
:10BF1000A86084F8358084F83490216D1FE0E16BCF
:10BF200009B120468847606D00282BD0606DC0079E
:10BF300014D0052084F835002068016821F0010143
:10BF400001600098401C0090B84203D82068006847
:10BF5000C007F6D184F8358084F83490E16C00296C
:10BF600010D001B02046BDE8F04308470168C9057C
:10BF7000D5D4016821F01001016084F8358084F87F
:10BF80003490CCE7BDE8F883980F00202DE9F0410C
:10BF9000044600F059FA05465CB1022084F83500E9
:10BFA000002684F834602068016821F001010160F6
:10BFB0000DE00120BDE8F08100F046FA401B0528A5
:10BFC00005D920206065032084F83500F2E7206859
:10BFD0000068C007F0D121680A6820480240D4E90F
:10BFE00001031843D4E903352B431843636918430D
:10BFF000A3691843E3691843236A18431043626A2C
:10C00000042A03D1D4E90B231A43104308602068A3
:10C010004069656A20F0070128460D43012704287E
:10C020000CD1A06A0543E06A40B12046FEF786F8CD
:10C0300020B14020606584F83570BAE7206845611A
:10C040002046FEF767F894F85C203F21914081601C
:10C05000666584F835700020ACE700003F8010E092
:10C060002DE9F0410446866D90F834000025012842
:10C070000DD0012084F8340094F835700020012F91
:10C0800007D084F8340002252846BDE8F08102205C
:10C09000FBE7022784F8357060652046FEF778F8E4
:10C0A00094F85C103F208840B0602068016841F03F
:10C0B00016010160206C20B12068016841F0080180
:10C0C00001602068016841F001010160DCE70000C7
:10C0D0002DE9F047044622480E46017E01290AD088
:10C0E0000121804601764CF250394846FEF7FEFAAF
:10C0F000020003D02FE00220BDE8F0874FF0FF30B0
:10C1000030602068174F012801D0A5681CE0207C12
:10C110006168FEF74FFA4846FEF7E8FA02463868CB
:10C1200020F00400386014E0217C2846FEF7F0F986
:10C130004846FEF7DBFA0200386820F07A003860E3
:10C1400001D0356005E06D1CD4E902100844A84216
:10C15000EAD8FEF705FA002188F818101046CBE758
:10C16000AC9A0020103C02400348016841F00041B5
:10C170000160002070470000103C02402DE9F047AC
:10C180001B4E05461446307E1F468946012808D0BE
:10C19000012030764CF250384046FEF7A7FA18B12D
:10C1A00014E00220BDE8F0879DB1012D16D0022DCC
:10C1B00019D022463B464846FEF720FA4046FEF795
:10C1C00095FA0C490A6822F001020A6000213176D2
:10C1D000E8E7E1B24846FEF701FAEFE7A1B24846C8
:10C1E000FEF722FAEAE721464846FEF72FFAE5E78E
:10C1F000AC9A0020103C0240074900200A68002A3F
:10C2000009DA054A054B0C3A1360054B13600968BF
:10C21000002900DA01207047103C024023016745E5
:10C22000AB89EFCD1CB50021019108280AD1FDF79B
:10C2300033FA8DF800000448002301AA694600681B
:10C2400009F026FE1CBD000044000020044910B582
:10C250000A68024202D00860FFF7E4FF10BD000048
:10C26000143C01402DE9F84FDFF890910022A9F12C
:10C27000040B03274FF00F0C09F1040AABF1040E75
:10C2800001250B6895402B40AB426ED10C7904F030
:10C290000304012C01D0022C15D18668540007FA42
:10C2A00004F826EA0806D1F80C8008FA04F848EAEF
:10C2B0000608C0F808804468AC430D79C5F3001542
:10C2C0009540254345600C79E443A40708D0C56830
:10C2D000540007FA04F6B5438E68A6402E43C660A4
:10C2E0000C7904F00304022C11D1D40800EB84066D
:10C2F000356A5407E40E0CFA04F825EA0805D1F86B
:10C30000108008FA04F848EA0508C6F82080056895
:10C31000540007FA04F6B5430E7906F00306A6406A
:10C320002E4306604C6814F4403F61D0344C2568BD
:10C3300045F480452560246822F0030504F4804418
:10C340000094304C05EB0408D8F808589407260FE1
:10C350000CFA06F4A5432C4CA04201D100241FE0A6
:10C360002A4CA04202D101241AE041E0284CA0420C
:10C3700001D1022414E0274CA04201D103240FE094
:10C38000254CA04201D104240AE0244CA04201D152
:10C39000052405E0224CA04201D1062400E0072438
:10C3A000B4402C43C8F80848D9F800404D464E68C0
:10C3B0009C43F60200D51C432C60DAF80040554639
:10C3C0004E689C43B60200D51C432C60DBF800404D
:10C3D0005D464E689C43B60300D51C432C60DEF8D6
:10C3E000004075464E689C43F60300D51C432C6004
:10C3F000521C102AFFF444AFBDE8F88F083C0140FE
:10C400004438024000300140000002400004024075
:10C4100000080240000C02400010024000140240DC
:10C42000001802400069084000D0012070474269AE
:10C4300021EA02030A4043EA0241816170470AB1DE
:10C44000816170470904FBE701488068704700007C
:10C450008C0F002000684AF6AA2101600020704776
:10C460000248816802781144816070478C0F002077
:10C470000B4810B5016841F400710160016841F496
:10C4800080610160016841F480710160032000F067
:10C490006FF8002000F006F800F024F8002010BD2E
:10C4A000003C024070B50D4D04464FF47A71287877
:10C4B000B1FBF0F00A490968B1FBF0F000F04CFC68
:10C4C00048B9102C07D200222146501E00F030F847
:10C4D00000206C6070BD012070BD00008C0F00203A
:10C4E000980F00200A4808B5016841F480410160B6
:10C4F000006800F4804000900548001F016841F08A
:10C5000080510160006800F08050009008BD00007C
:10C5100044380240002809DB00F01F02012191404D
:10C520004009800000F1E020C0F8001170470000D1
:10C53000F0B40E4B1B68C3F30223C3F10704042CB1
:10C5400000D904241D1D072D01D2002300E0DB1EAD
:10C55000012606FA04F56D1E0D409D409E40761E94
:10C56000164045EA0601F0BC08F06EB80CED00E09C
:10C57000064A00F0070110684FF6FF03184040EA32
:10C580000120034908431060704700000CED00E0F3
:10C590000000FA052DE9F0470D46040065D0DFF8EC
:10C5A0001491D9F80000EFB200F00700A84207D2BA
:10C5B00089F80070D9F8000000F00700A84254D1B3
:10C5C00020683D4E810712D5400703D5306840F4FE
:10C5D000E05030602078000703D5306840F46040B8
:10C5E00030603068A16820F0F000084330602078A7
:10C5F000C0072DD0304960680839012812D00228C0
:10C6000013D0032811D00968890700292DDA316871
:10C6100021F0030101433160FFF716FF804641F22C
:10C62000883A0EE009688903EFE709688901ECE7B9
:10C63000FFF70AFFA0EB0801514502D90320BDE82E
:10C64000F0873068616800F00C00B0EB810FEFD12B
:10C65000D9F80010484601F00701A94207D9077030
:10C66000006800F00700A84201D00120E7E7207829
:10C67000400705D53068E16820F4E0500843306099
:10C680002078000706D53068216920F4604040EA30
:10C69000C100306000F038F83168084AC1F3031176
:10C6A000515CC8400649086006480068FFF7FAFE7A
:10C6B0000020C4E7003C024008380240DA64010868
:10C6C000980F0020900F0020044805490068096871
:10C6D000044AC1F38221515CC8407047980F002082
:10C6E00008380240EA6401080448054900680968FE
:10C6F000044AC1F34231515CC8407047980F002092
:10C7000008380240EA640108154810B5006810F0C6
:10C710000C01144813D0431004290FD008290ED15E
:10C720000F4C241F216801F03F022168490207D500
:10C730002068C0F38810A0FB030106E0184610BD76
:10C740002168C1F38811A1FB00010023FBF73CFE27
:10C750002168C1F30141491C4900B0FBF1F010BD53
:10C76000083802400024F4002DE9F84F040075D089
:10C770002078DFF84CA3C007AAF1040548D00AF1DD
:10C7800004000168C1F38101012908D00068C0F3E9
:10C79000810002280AD1DAF80000400206D5286894
:10C7A000800335D560680028E1D031E06068B0F5DD
:10C7B000803F10D0B0F5A02F286810D020F4803032
:10C7C0002860286820F4802028606068A0B1FFF706
:10C7D0003BFE06460CE0286840F48030F4E740F465
:10C7E00080202860F7E7FFF72FFE801B642871D8B0
:10C7F00028688003F7D50BE0FFF726FE064604E025
:10C80000FFF722FE801B6428F1D828688003F7D444
:10C810002078DFF8B09280074FF0000B3DD5A84894
:10C82000001D016811F00C0F08D00068C0F38100F2
:10C8300002280AD1DAF80000400206D428688007EE
:10C8400015D5E068012809D111E0E068B8B10120F0
:10C85000C9F80000FFF7F8FD064605E02BE1FFF7F9
:10C86000F3FD801B0228C2D828688007F7D5286806
:10C87000216920F0F80040EAC10028600DE0C9F805
:10C8800000B0FFF7E1FD064604E0FFF7DDFD801B89
:10C8900002281FD828688007F7D42078000722D5FF
:10C8A000874F89486169703771B101210160FFF7D5
:10C8B000CBFD064604E0FFF7C7FD801B022809D820
:10C8C00038688007F7D50EE0C0F800B0FFF7BCFD70
:10C8D000064605E082E0FFF7B7FD801B02287DD801
:10C8E00038688007F7D42078400765D574484FF042
:10C8F00000083C300068C0000BD471483C3001682F
:10C9000041F08051016000684FF0010800F0805054
:10C9100000906E4F3868C0050FD4386840F48070BE
:10C920003860FFF791FD064604E0FFF78DFD801BA0
:10C93000022853D83868C005F7D5614FA0686C3716
:10C9400001280FD00528386810D020F00100386089
:10C95000386820F004003860A068B0B1FFF774FDBB
:10C9600006460EE0386840F00100F4E740F00400AD
:10C970003860F7E7FFF768FD811B41F2883081429C
:10C9800065D838688007F5D50DE0FFF75DFD0646F0
:10C9900006E0FFF759FD811B41F28830814256D8ED
:10C9A00038688007F5D4B8F1000F05D044483C3012
:10C9B000016821F080510160A069C8B34049091D98
:10C9C0000968C1F38101022948D00228584606D0DF
:10C9D000C9F86000FFF738FD04463BE037E04F46FA
:10C9E000C9F86000FFF730FD064604E0FFF72CFDB4
:10C9F000801B02282BD828688001F7D4F4E90701AE
:10CA00000843E168324A490802EB0141A26841EA61
:10CA100082110843217C40EA0160217D40EA0171D6
:10CA2000CAF8001001203866FFF70EFD044605E045
:10CA300043E0FFF709FD001B022808D828688001A1
:10CA4000F7D53AE0FFF700FD001B022802D90320CA
:10CA5000BDE8F88F28688001F4D42EE00128F7D0D3
:10CA6000DAF80000E26900F48001914223D1226AE1
:10CA700000F03F0191421ED147F6C071626A014049
:10CA8000B1EB821F17D1A26A4FF0FF3300F440319F
:10CA900003EB5202B1EB024F0DD194F82C2000F0C1
:10CAA0007061B1EB026F06D194F8301000F0E040F5
:10CAB000B0EB017F01D00120CAE70020C8E70000E9
:10CAC0000438024000004742800E47420070004098
:10CAD0000000FFFF7047000038B5016804464A684F
:10CAE0008868C043430606D5C30704D1D3435B0619
:10CAF00001D4216C05E0830708D4D3431B0605D479
:10CB0000616C01B02046BDE830400847830603D57C
:10CB1000430601D5C30551D4D3439B064ED44306E7
:10CB20000AD494F85130032B49D0636D43F00403C9
:10CB30006365CB688B680093830609D4636D43F00B
:10CB4000010363658B6800930B6823F040030B605F
:10CB5000C00506D4606D40F00800606520688068FC
:10CB60000090606D002829D02068416821F0E00124
:10CB70004160012084F85100900701D4D00722D0F1
:10CB80002068416821F003014160114DE06C40B123
:10CB90000565E06CFFF714F918B1606D40F04000D6
:10CBA0006065A06C002809D00565A06CFFF708F946
:10CBB000002803D0606D40F04000606538BDC86853
:10CBC0008868009038BD2046FFF784FF38BD00001C
:10CBD000790D010870B5040009D0606A002540B1E4
:10CBE00025616561A56294F8510040B10CE0012017
:10CBF00070BD6068B0F5827FF4D0E561F2E784F83B
:10CC00005050204600F044F8022084F8510020687B
:10CC1000016821F040010160A088218900F4827040
:10CC200001F404410843A18901F400610843217C17
:10CC300001F002010843217D01F001010843218B2D
:10CC400001F400710843217F01F03801084394F892
:10CC5000201001F080010843218D01F400510843A8
:10CC600021680860A069042101EA104094F82410AA
:10CC700001F010010843216848602068C16921F46F
:10CC80000061C1616565012084F85100002070BD1C
:10CC9000F0B587B0044614216846FBF702FD294928
:10CCA000206888424CD128480024016841F4804122
:10CCB0000160006800F48040059023481038016846
:10CCC00041F004010160016801F00401059101686F
:10CCD00041F002010160016801F002010591016863
:10CCE00041F0010101600068022500F0010005909B
:10CCF0000420CDE9000502AA0326052782E8D0001A
:10CD000069461248FFF7AEFAA803CDE9000502AA6A
:10CD1000694682E8D0000E48FFF7A4FA2802CDE960
:10CD2000000502AA694682E8D0000A48FFF79AFA8D
:10CD3000002211462420FFF7FBFB2420FFF7EAFB2B
:10CD400007B0F0BD00380040403802400008024003
:10CD5000000402400000024010B5401EB0F1807F88
:10CD600001D3012010BD4FF0E02460610F21601756
:10CD700007F06AFC0020A06107202061002010BDA0
:10CD80007047704770B590F83C20012A32D00125D9
:10CD900080F83C50022280F83D2002685368946875
:10CDA00023F070060B6833435360134B02689A42BA
:10CDB00014D0B2F1804F11D0104B9A420ED0104BCC
:10CDC0009A420BD00F4B9A4208D00F4B9A4205D093
:10CDD0000E4B9A4202D00E4B9A4204D1496824F07D
:10CDE00080031943916080F83D50002180F83C1089
:10CDF000084670BD022070BD0000014000040040E4
:10CE000000080040000C00400004014000400140C8
:10CE10000018004010B5040003D094F83D0010B194
:10CE200007E0012010BD002084F83C00204600F0FF
:10CE30001FF8022084F83D00211D206807F0ACF89F
:10CE4000012084F8460084F83E0084F83F0084F80E
:10CE5000400084F8410084F8420084F8430084F8DC
:10CE6000440084F8450084F83D00002010BD000017
:10CE700008B500680F4988421AD10F48016841F08F
:10CE8000020101600068032200F00200009001210D
:10CE90001D20FFF74DFB1D20FFF73CFB0648001D42
:10CEA000016841F001010160006800F0010000909C
:10CEB00008BD0000000001404038024070B5044643
:10CEC00090F83C000025012817D0012684F83C602A
:10CED000022084F83D002068826822F0770222F464
:10CEE0007F4282600868502838D00DDC20284FD05F
:10CEF00005DC90B3102811D14AE0022070BD302823
:10CF000046D040280AD13BE060282FD070280DD0B1
:10CF1000B0F5805F03D0B0F5005F12D0012584F832
:10CF20003D60002084F83C00284670BDCB68D1E904
:10CF30000121206807F094F82068816841F07701AA
:10CF400009E0CB68D1E90121206807F089F8206861
:10CF5000816841F480418160E1E719E0CA6849686D
:10CF6000206807F08FF85021206806E0CA684968F9
:10CF7000206807F098F86021206807F07BF8CEE77A
:10CF8000CA684968206807F07DF840212068F4E706
:10CF9000226801461046F0E7704770B50446006805
:10CFA00001694FF00005C943890715D4C168C94319
:10CFB000890711D4E91E016101202077206880696A
:10CFC0008007204602D0FFF7E7FF04E000F098F862
:10CFD000204600F096F8257720680169C943490783
:10CFE00017D4C168C943490713D46FF00401016124
:10CFF000022020772068806910F4407F204602D00C
:10D00000FFF7CAFF04E000F07BF8204600F079F853
:10D01000257720680169C943090716D4C168C94347
:10D02000090712D46FF008010161042020772068FD
:10D03000C0698007204602D0FFF7AEFF04E000F091
:10D040005FF8204600F05DF8257720680169C94344
:10D05000C90617D4C168C943C90613D46FF01001BB
:10D060000161082020772068C06910F4407F2046C5
:10D0700002D0FFF791FF04E000F042F8204600F0F4
:10D0800040F8257720680169C943C90708D1C168FC
:10D09000C943C90704D1891E0161204600F032F856
:10D0A00020680169C943090609D4C168C943090652
:10D0B00005D46FF0800101612046FFF761FE206812
:10D0C0000169C943490609D4C168C943490605D461
:10D0D0006FF040010161204600F01AF820680169F4
:10D0E000C94389060BD4C168C943890607D46FF0C8
:10D0F000200101612046BDE87040FFF742BE70BDCF
:10D10000704770470148FFF7A5B900005C10002088
:10D110007047704710B504460068406994F83D10A8
:10D12000C0F3C010212911D180B12068143050E81B
:10D13000001F21F0800140E80012002AF5D1606B49
:10D1400008B1FEF7F4FD204607F087F82068406933
:10D1500094F83E10C0F38010222911D180B12068CC
:10D16000143050E8001F21F0400140E80012002A6E
:10D17000F5D1A06B08B1FEF7DAFD204607F046F8BE
:10D18000002010BD70470000F8B50168044608682B
:10D19000CA684B6910F00F0F4FF0000559D003F02B
:10D1A000010602F49077374365D0C10705D0D10559
:10D1B00003D5216C41F001012164410705D5D90750
:10D1C00003D0216C41F002012164810705D5D90704
:10D1D00003D0216C41F004012164010707D502F05E
:10D1E0002001314303D0216C41F008012164216CFE
:10D1F00000293AD0800604D5900602D5204607F0D3
:10D200003AF820684069216CC0F38010090700D407
:10D2100060B3204606F0FAFF20684069400621D539
:10D220002068143050E8001F21F0400140E800124F
:10D23000002AF5D1A06BA8B16C490165A06BFEF77F
:10D24000BFFD002811D0A06B016D01B0BDE8F0401A
:10D25000084783060FD593060DD52046BDE8F84054
:10D2600007F009B82046FFF78DFFF8BD2046FFF70D
:10D2700089FF2564F8BD266B2023012E79D1C606CF
:10D2800077D5D60675D50868486800904869400685
:10D2900040D5A16B086840680004000CEAD0A28D5C
:10D2A0008242E7D9E085C869B0F5807F2DD020683B
:10D2B0000C3050E8001F21F4807140E80012002A71
:10D2C000F5D12068143050E8001F21F0010140E83A
:10D2D0000012002AF5D12068143050E8001F21F018
:10D2E000400140E80012002AF5D184F83E30256361
:10D2F00020680C3050E8001F21F0100140E80012B7
:10D30000002AF5D1A06BFEF712FDA08DE18D401A29
:10D3100081B229E0A08DE18D401A81B2E08D002814
:10D32000A8D00029A6D020680C3050E8002F22F4A5
:10D33000907240E80026002EF5D12068143050E8A5
:10D34000002F22F0010240E80026002EF5D184F8DB
:10D350003E30256320680C3050E8002F22F0100288
:10D3600040E80023002BF5D12046FFF7D2FEF8BDA0
:10D37000FFE705062BD5150629D594F83D00212891
:10D38000F5D1A068B0F5805F01D12069B0B1206A05
:10D39000411C2162216800784860E08C401E000436
:10D3A000000CE084E3D12068C16821F08001C160F5
:10D3B0002068C16841F04001C160D8E7206A008858
:10D3C000C0F308004860206A801C2062E5E7400640
:10D3D000CDD55006CBD5CA68204622F04002CA609F
:10D3E00084F83D3000F0ACFAC1E70000CB40010802
:10D3F00070B5040004D094F83D00002510B106E09B
:10D40000012070BD84F83C50204600F023F8242011
:10D4100084F83D002068C16821F40051C1602046B5
:10D4200006F08AFF2068016921F4904101612068BB
:10D43000416921F02A0141612068C16841F400512D
:10D44000C1602564202084F83D0084F83E0000205F
:10D4500070BD00002DE9F04F87B0044614216846E6
:10D46000FBF71FF9A148DFF880821038D4F800C01C
:10D470009E4B022103224027002506154FF0080A83
:10D480004FF0206BC44555D1D3F800C0A9464CF0ED
:10D49000804CC3F800C01B6803F080430593036809
:10D4A00043F010030360006800F010000590D00105
:10D4B0008DE82300CDE9032A69468D48FEF7D2FEA8
:10D4C000DFF834828B494046C8F80010C0E901B546
:10D4D000C0E90356DA464FF4003BC8F820B089157E
:10D4E000C8F81450C8E90651C8F82450FEF74EFD9C
:10D4F00008B1FDF70AF8814DC4F838807D48C8F8B6
:10D5000038403038AF60C5E9000AC5E90396C5F870
:10D510001490C5F81890C5E9079B2846C5F82490D3
:10D52000FEF734FD08B1FCF7F0FF6563AC6307B0AC
:10D53000BDE8F08FDFF8C8814FF00709C44557D127
:10D54000D3F800C04CF4003CC3F800C01B6803F4DF
:10D5500000330593036843F008030360006800F09C
:10D560000800059060208DE82300CDE90329694675
:10D570006448FEF777FE5F49DFF88C813031404622
:10D580004FF0006AC8F80010C0E901A5C0E90356D1
:10D59000C8F814504FF4803BC8F81850C8E9075B2E
:10D5A000B146C8F82450FEF7F1FC08B1FCF7ADFF16
:10D5B000564EC4F83880C8F83840C6E90275C6E946
:10D5C0000495B561C6E9075B4A4875624830C6E90B
:10D5D000000A3046FEF7DAFC08B1FCF796FF6663F6
:10D5E00000220C212620B463FEF7A2FF262077E05C
:10D5F000DFF81C81C4451AD11C6844F480241C60E7
:10D600001B6803F480230593036843F0020303605F
:10D61000006800F0020005904FF440608DE82300A0
:10D62000CDE9032969463B48FEF71CFE7FE73A4BEC
:10D630009C45FBD12D4B1B1DD3F800C04CF0200C9A
:10D64000C3F800C01B6803F020030593036843F090
:10D6500004030360006800F004000590C0208DE81A
:10D660002300CDE9032A69462C48FEF7FBFDDFF8CD
:10D67000B4902B494846C9F80870C0E90356C9F868
:10D680001450C9F81850C9F81C50C9F82050C9E9FD
:10D69000001BD846C9F82450FEF778FC08B1FCF707
:10D6A00034FF1F48204FC4F834907838C9F8384008
:10D6B0003860C7E90185C7E903567D61BD61FD6139
:10D6C0003D6238467D62FEF761FC08B1FCF71DFF44
:10D6D000A76300220D214720BC63FEF729FF4720E6
:10D6E000FEF718FF23E700000078004040380240B2
:10D6F00000100240586002401812002078120020EA
:10D7000000440040000C0240D812002038130020D2
:10D71000004800400004024000140140000802409C
:10D72000A064024098130020F81300202DE9F84F60
:10D73000044690F83E00984615460E46202855D1DE
:10D740000EB305B394F83C0001284FD0012084F8B3
:10D750003C004FF00009C4F84090222184F83E10AC
:10D76000C4F83090FEF770FEA5858246E585A06876
:10D770004FF48057B84201D1206938B135460026B0
:10D7800084F83C9027E00120BDE8F88F0025F7E7FA
:10D790005346002220212046CDF8008006F0C5FE29
:10D7A00008B10320F0E725B1A068B8421BD038B11A
:10D7B00008E020684068C0F3080026F8020B07E084
:10D7C000206980B12068406800F07F0005F8010BF7
:10D7D000E08D401EE085E08D0028D9D1202084F81E
:10D7E0003E000020D0E720684068EFE70220CBE74A
:10D7F00090F83E30202B0ED159B152B190F83C3008
:10D80000012B08D0012380F83C300023036306F08D
:10D8100023BE012070470220704790F83E30202B35
:10D820000ED159B152B190F83C30012B08D00123F0
:10D8300080F83C300023036306F05ABE0120704795
:10D840000220704710B50068114988420ED1114975
:10D850000120087002E0012007F0A6FF0A220E490D
:10D860000E48FFF7DAFF0228F5D010BD0C498842B8
:10D87000FBD10C490220087002E0012007F094FF60
:10D88000082209490948FFF7C8FF0228F5D010BD52
:10D8900000440040D0000020CE1400204C11002095
:10D8A00000780040850300206899002008110020BE
:10D8B00070470000F7B5044690F83D00202837D1A6
:10D8C000019991B38AB394F83C00012830D001202B
:10D8D00084F83C002162A284E28400252564212092
:10D8E00084F83D00636B1348D863636B1248186477
:10D8F000636B1248D864606B134605652668606BDD
:10D90000321DFEF7ADFB21686FF04000086084F81F
:10D910003C502068143050E8001F41F0800140E87E
:10D920000012002AF5D10020FEBDFFE70120FBE731
:10D930000220F9E7C141010803420108DB40010868
:10D94000054800680068C043400604D40A22034921
:10D950000148FFF74DBF70474C110020CE14002046
:10D960007047FEE72DE9F041164F054600244FF4BD
:10D9700080684FF40066002231463846FEF75FFDAE
:10D98000280601D5012200E0002241463846FEF774
:10D9900056FD02F079FA012231463846FEF74FFD76
:10D9A00002F072FA6806641C050EE4B2082CE2D399
:10D9B000002231463846FEF742FDBDE8F04102F054
:10D9C00063BA00000018024070B501220E4D9402A7
:10D9D00021462846FEF733FD0122D602314628466D
:10D9E000FEF72DFD02F050FA002221462846FEF7F0
:10D9F00026FD02F049FA002231462846FEF71FFDB7
:10DA0000BDE8704002F040BA0018024070B5104DF9
:10DA10004FF48064002221462846FEF710FD660080
:10DA2000002231462846FEF70AFD02F02DFA0122B7
:10DA300031462846FEF703FD02F026FA0122214670
:10DA40002846FEF7FCFCBDE8704002F01DBA00005D
:10DA5000001802402DE9F041114E00244FF480657A
:10DA6000224629463046FEF7EAFC02F00DFA012272
:10DA7000D70239463046FEF7E2FC02F005FA0022F2
:10DA800039463046FEF7DBFC02F0FEF9012229465A
:10DA90003046FEF7D4FC02F0F7F92046BDE8F081ED
:10DAA0000018024070B50F4D4FF48044002221460B
:10DAB0002846FEF7C4FC03F043F900226100284623
:10DAC000FEF7BDFC06F0F8FD012221462846FEF7D0
:10DAD000B6FC06F0F1FD21462846BDE87040002264
