:020000040800F2
:10000000280A0220F101000823260008B91B000875
:1000100021260008530300081D28000800000000E6
:10002000000000000000000000000000572700084A
:10003000EB030008000000003D27000859270008D6
:100040000B0200080B0200080B0200080B0200085C
:100050000B0200080B0200080B0200080B0200084C
:100060000B0200089D0600080B0200080B020008A6
:100070000B0200080B0200080B0200080B0200082C
:100080000B0200080B0200080B0200080B0200081C
:10009000550300080B0200080B0200080B020008C1
:1000A0000B0200080B0200080B0200080B020008FC
:1000B0000B0200080B0200080B0200080B020008EC
:1000C0000B0200080B0200080B0200080B020008DC
:1000D0000B0200080B0200080B0200080B020008CC
:1000E0000B0200080B0200080B0200080B020008BC
:1000F0000B0200080B0200080B0200080B020008AC
:100100000B0200080B0200080B0200080B0200089B
:100110000B0200080B0200080B0200080B0200088B
:100120000B0200080B0200080B0200080B0200087B
:100130000B0200080B0200080B0200080B0200086B
:100140000B020008610300080B0200080B02000804
:100150000B0200080B0200080B0200080B0200084B
:100160000B0200080B0200080B0200086D030008D8
:100170000B0200080B020008000000000000000055
:100180000B0200080B0200080B0200080B0200081B
:100190000B0200080B020008000000000B02000820
:1001A0000B0200080B020008000000000000000025
:1001B0000B02000800000000000000000B02000815
:1001C0000B0200080B0200080B0200080B020008DB
:1001D0000B0200080B020008DFF810D000F07CF8DA
:1001E0000048004719290008AFF30080280A0220C0
:1001F0000648804706480047FEE7FEE7FEE7FEE7C1
:10020000FEE7FEE7FEE7FEE7FEE7FEE7ED27000874
:10021000D90100082DE9F05F0546002092469B4673
:1002200088460646814640241BE02846414647460C
:10023000224600F041F853465A46C01A914110D365
:1002400011461846224600F028F82D1A67EB0108DF
:100250004F4622460120002100F01FF817EB00094D
:100260004E41201EA4F10104DFDC484631462A46F7
:100270004346BDE8F09FD2B201E000F8012B491ED1
:10028000FBD270470022F6E710B513460A46044633
:100290001946FFF7F0FF204610BD202A04DB203A64
:1002A00000FA02F1002070479140C2F1200320FAC9
:1002B00003F3194390407047202A04DB203A21FAC7
:1002C00002F00021704721FA02F3D040C2F120026F
:1002D0009140084319467047064C074D06E0E06818
:1002E00040F0010394E8070098471034AC42F6D37D
:1002F000FFF776FF0C2A00082C2A000870B58C182E
:1003000010F8015B15F0070301D110F8013B2A1129
:1003100006D110F8012B03E010F8016B01F8016B16
:100320005B1EF9D12B0705D40023521E0DD401F812
:10033000013BFAE710F8013BCB1A921C03E013F8DB
:10034000015B01F8015B521EF9D5A142D8D3002010
:1003500070BDFEE7014800F0E6BB0000AC050220DE
:10036000014800F0E0BB0000D4050220014800F085
:10037000DABB0000FC05022000B58BB00120002193
:10038000CDE906010E21CDE9040108904FF4A050FB
:1003900000904FF4A15001904FF4A25002904FF4FE
:1003A000AA50099103906946054800F0A5FA04484F
:1003B00000F0A2FE1021024800F08CFA0BB000BD44
:1003C000D405022070B50024641CE0B2012102F0C3
:1003D00091FA0025002002F094F96D1CEDB2802DF9
:1003E000F8D3E4B2082CEFD370BD704738B50A2AB1
:1003F00006D230238DF8003002F130038DF8013041
:10040000A2F10A03592B0CD80A24B2FBF4F33033BF
:100410008DF80030B2FBF4F304FB132230328DF878
:1004200001206A4600F002F838BD00002DE9F041D5
:10043000491C0746CEB21546002421E1A02870D9F8
:10044000C2285CD00DDCA0F1B00010281DD2DFE87E
:1004500000F01BBBBB1DBB282DBBBB33BB36B64757
:10046000BB4ACF286FD008DCC4284BD0C9284FD056
:10047000CA285AD0CD2808D169E0D0287BD0D3280B
:100480006FD0D62801D18EE0804C9DE06878C928D5
:1004900002D0CC2803D097E07C4C603C94E07C4CAC
:1004A00092E06878E72800D17A4C8DE06878AB2834
:1004B00001D1784CE03C87E0744C403C84E06878A3
:1004C000B62804D0AA2805D0FA2806D07CE06F4CC4
:1004D000703479E06F4C803C76E06E4CA03C73E069
:1004E0006B4C403470E06878F32802D0D82803D0F1
:1004F0006AE0684CC03C67E0664C203464E0634CC2
:10050000403461E06878DC285ED1624C203C5BE0DE
:100510006878D52802D0BD2804D055E05B4C203443
:1005200052E05AE0594CF0344EE06878A72804D0E5
:10053000D52805D0B92807D046E0544C203C43E0EC
:10054000534C603440E010E0504CB0343CE06878EC
:10055000B32802D0C52805D036E04E4C603433E0D5
:1005600009E014E04B4CA0342EE06878B5282BD17C
:10057000484C403428E06878F22802D0C52803D0DF
:1005800022E0434C20341FE0424C603C1CE0687881
:10059000AD2802D0C32803D016E03C4C903413E0C1
:1005A0003A4CD03410E06878D02802D0C72803D065
:1005B0000AE0364C803C07E0364C403C04E068786A
:1005C000AF2801D1334C803422463146384602F000
:1005D0005DF91036F6B26D1C51E034282ED010DCD7
:1005E00030281FD006DC20281AD0252838D02E2805
:1005F0003ED138E0312818D0322819D0332837D1ED
:1006000019E0382826D006DC35281AD036281BD029
:1006100037282DD11BE039281FD0582828D125E0B4
:100620001D4C25E01A4CC03C22E0194CB03C1FE0A8
:10063000174CA03C1CE0164C903C19E0144C803C3C
:1006400016E0134C703C13E0114C603C10E0104C71
:10065000503C0DE00E4C403C0AE00D4C303C07E0B5
:100660000B4C203C04E00A4C103C01E0074C603489
:1006700022463146384602F023F90836F6B26D1CA0
:10068000287800287FF4DAAEBDE8F081140200205B
:100690001401002004040020FC040020082000F0C5
:1006A0004DBE72B6FEE70000002229B101291AD022
:1006B00002291BD04FF440720E490B6823F440739B
:1006C0000B600B6813430B600A6822F078020A6023
:1006D0000A68022303EBC00002430A60086840F482
:1006E0008030086070474FF48072E5E74FF4007285
:1006F000E2E70000103C02401348016889050FD56D
:10070000016821F400710160016841F40061016039
:10071000016821F400610160016841F40071016029
:10072000016849050FD5016821F480610160016805
:1007300041F480510160016821F480510160016839
:1007400041F4806101607047003C024008490A683A
:1007500022F440720A600A6842F004020A600A68E1
:100760004FF4803343EA002002430A6070470000E0
:10077000103C0240064A136823F440731360136868
:100780001360136843F001031360017070470000A9
:10079000103C0240094910B50C6824F440740C6008
:1007A0000C6844F440740C600C6844F001040C6064
:1007B0000260BFF36F8F436010BD0000103C024029
:1007C000074A136823F440731360136843F480737B
:1007D0001360136843F00103136001807047000049
:1007E000103C0240074A136823F4407313601368F7
:1007F00043F400731360136843F001031360016056
:1008000070470000103C02401C490868C2061C48A2
:1008100005D5C26942F01002C26110220A600A685E
:10082000920605D5C26942F00802C26120220A6020
:100830000A68520605D5C26942F00402C26140222C
:100840000A600A68120605D5C26942F00202C26156
:1008500080220A600A68D20506D5C26942F0010208
:10086000C2614FF480720A600A68920705D5C269B6
:1008700042F02002C2610220086070470C3C024036
:100880002005022070B5114904460020C86100F01F
:1008900055FE06460E4D09E0601C07D024B100F05D
:1008A0004DFE801BA04201D9032070BD2868C00303
:1008B000F2D42868C00701D001202860286810F40D
:1008C000F970F2D0FFF7A0FF012070BD20050220D3
:1008D0000C3C024090F82020012A07D0022A05D0C3
:1008E000416A41F4802141620120704700684269F9
:1008F0000A4342610020704710B590F8203002682A
:10090000012B07D0022B05D0416A41F480214162BE
:10091000012010BD3E4C3F48A24200D00246D2F812
:10092000003243F00103C2F8003282420CD1D2F807
:10093000000220F47C50C2F80002D2F800024B6A98
:1009400040EA0320C2F80002087D00F01F030120E6
:100950009840D2F81C328343C2F81C32CB69B3B939
:10096000D2F80C328343C2F80C328C894B6864F3A2
:100970001F434C6902EBC404C4F840320C890B6875
:1009800064F31F434C6902EBC404C4F84432CB69DE
:10099000012B16D1D2F80C320343C2F80C320C886A
:1009A0004B6864F31F434C6902EBC404C4F8403243
:1009B0000C89CB6864F31F434C6902EBC404C4F890
:1009C00044328B69002BD2F804320FD053EA000373
:1009D000C2F804320B69002BD2F8143208D003435A
:1009E000C2F81432096A012904D008E08343EFE712
:1009F0008343F5E7D2F81C120143C2F81C12D2F867
:100A0000000220F00100C2F80002002010BD00002A
:100A1000006C00400064004090F82020012A07D0BC
:100A2000022A05D0416A41F48021416201207047C9
:100A3000006842698A43426100207047704730B5C0
:100A400090F82040012C05D0022C03D0416A41F4DB
:100A500080215DE00468002955D02469A40754D0A2
:100A60004FF4D874056804EB01142D5915F00405F2
:100A7000956005682D594ED0ED08556005682C59D4
:100A800004F00204D4604FF4DA74056804EB011436
:100A90002D5905F00F05156105682D59C5F307257A
:100AA000956105682C59240C54614FF4DC7204687C
:100AB00002EB0112A4581C700468A458240A5C704C
:100AC0000468A458240C9C700468A258120EDA70B2
:100AD0004FF4DE72046802EB0112A4581C71046822
:100AE000A458240A5C710468A458240C9C710468FE
:100AF000A258120EDA71006881B1016941F020013B
:100B00000161002030BDE468A8E7416A41F40011AA
:100B10004162012030BD6D0D1560AFE7C16841F045
:100B20002001C160EDE72DE9F05F05460068002473
:100B30004669D0F804908768D0F80CB0D0F810A0BF
:100B4000D0F81880F10748D0F90714D0012181604E
:100B5000B80703D5284600F02CFB0CE0780702D537
:100B60004FF4006407E0380702D54FF4805402E0E8
:100B7000284600F01DFBF80516D529684FF4807053
:100B80008860B80503D5284600F015FB0CE0780511
:100B900002D544F4005407E0380502D544F48044FB
:100BA00002E0284600F006FBF80316D529684FF44A
:100BB00080308860B80303D5284600F0FEFA0CE0C8
:100BC000780302D544F4004407E0380302D544F426
:100BD000803402E0284600F0EFFA300707D55FEADC
:100BE000CB6004D52968102044F40074C8607007F5
:100BF0004FF0080707D55FEA0B7004D52868C76077
:100C0000284600F0A9F9B00706D52868C068800713
:100C100002D0284600F0A2F9700607D55FEACA6044
:100C200004D52968102044F480640861B00607D513
:100C30005FEA0A7004D528680761284600F0B6F913
:100C4000F00606D528680069800702D0284600F023
:100C5000AFF9B00308D55FEAC96005D5296810204F
:100C60004860284600F046FAF00307D55FEA0970AD
:100C700004D528684760284600F0A0FA300446D51D
:100C80005FEA497040D5F00504D55FEAC87001D02D
:100C900044F00104B00504D55FEA887001D544F042
:100CA0000204700504D55FEA487001D544F00404DD
:100CB000300529D518F0700F26D008F070004028B4
:100CC00015D006DC102809D020280AD0302816D1EB
:100CD0000AE050280ED0602811D10EE044F008043C
:100CE0000DE044F010040AE044F0200407E044F072
:100CF000400404E044F0800401E044F48074286877
:100D0000816921F070018161296804204860002C0C
:100D100005D0686A204368622846FFF78FFEBDE869
:100D2000F09F70B5040003D094F8200010B104E0E7
:100D3000012070BD204600F081F82068016841F074
:100D40000101016000F0FAFB0546052604E000F011
:100D5000F5FB401B0A2811D820684068C007F6D070
:100D60002068016821F00201016000F0E7FB054600
:100D70000BE000F0E3FB401B0A2806D9606A40F450
:100D80000030606284F82060D2E720684068800705
:100D9000EFD4207E0128206801683DD021F0800139
:100DA0000160607E01282068016838D021F0400190
:100DB0000160A07E01282068016833D021F0200165
:100DC0000160E07E0128206801682ED041F010010A
:100DD0000160207F01282068016829D021F00801E6
:100DE0000160607F01282068016824D021F004019F
:100DF0000160D4E902010843D4E904121143084315
:100E00006168491E08432168C861002060620120B2
:100E100084F82000002070BD41F08001C0E741F05F
:100E20004001C5E741F02001CAE721F01001CFE7FA
:100E300041F00801D4E741F00401D9E7F0B587B0EB
:100E4000044614216846FFF71DFA3D493B4F2668CA
:100E500000223B481039032302240925BE421FD13A
:100E6000066846F000760660006800F000700590A5
:100E7000086840F0400008600868CDE9003400F0E0
:100E80004000CDE9045069462E48CDE9022300F028
:100E900061FA00220921142000F0BEFB142023E097
:100EA000294FBE4224D1066846F08066066000687D
:100EB00000F080600590086840F002000860086853
:100EC00002AE00F0020005904FF44050CDE900045E
:100ED00086E82C0069461D4800F03CFA00220A21F1
:100EE000412000F099FB412000F088FB07B0F0BDE5
:100EF000174DAE42FAD1056845F0006505600068FF
:100F000000F000600590086840F001000860086883
:100F1000029200F0010005904FF40140CDE9000479
:100F20000B20CDE9033069460A4800F013FA00228D
:100F30000B214B2000F070FB4B20D5E700640040F4
:100F4000403802400018024000680040000402409F
:100F5000006C0040000002407047000010B50446DD
:100F600000680C49884205D10B4B0C4A00210C4803
:100F7000FFF765FD0B492068884209D1064B074AF7
:100F800010333832BDE8104000210748FFF757BD45
:100F900010BD000000640040D0040020580502206D
:100FA000AC050220006C0040FC05022070470000E8
:100FB0002DE9F04100684049884223D13F4B404A27
:100FC00001214048FFF73BFD3D483C4D01210368AE
:100FD00000203D4A3D4E143D384CA02B14D03C4FD0
:100FE000A12B33D0A22B0DD13A4DA3792B70E479EC
:100FF0003B68083B23443B60374B1970106000F09E
:101000009DFA3060BDE8F081344F3B78002BF9D178
:101010002378AA2BF6D16378AA2BF3D1E37994F83D
:1010200004C003EB0C6394F805C0A4794FEA0C4CA0
:101030000CEB04241C442A4B1C6039701968C90845
:101040006960196801F00701A960D7E7254B19709D
:10105000106000F073FA3060234B686923491A6806
:10106000234E1060A8695060686868B1401E6860CF
:10107000002091F800C0255C401C6544EDB20D6075
:1010800035700828F5DB11E00020AD680CE000BFEA
:1010900014F800C091F800E0401CF4440CF0FF0C80
:1010A000C1F800C086F800C0A842F1D308321A6027
:1010B000386808303860A5E700680040D804002090
:1010C00074050220D4050220440000203C000020CA
:1010D0001800002004000020010000200000002073
:1010E0001400002002000020080000201C00002046
:1010F000030000207047000070B5044690F82000FF
:10110000012804D0606A40F40020606218E00220E8
:1011100084F820002068016821F00101016000F0DE
:101120000DFA05460EE000BF00F008FA401B0A2841
:1011300008D9606A40F400306062052084F820001D
:10114000012070BD20684068C007EDD1606270BDAD
:1011500070B5044690F82000022804D0606A40F47C
:101160008010606214E02068016841F001010160B4
:1011700000F0E4F905460DE000F0E0F9401B0A2814
:1011800008D9606A40F400306062052084F82000CD
:10119000012070BD20684068C007EDD0206801685C
:1011A00021F002010160012084F82000002070BDC0
:1011B000704770477047704770477047704700002E
:1011C00070B5044600F0BAF90546601C02D0044828
:1011D0000078044400F0B2F9401BA042FAD370BD7D
:1011E000EC0400202DE9F047044622480F46017E1A
:1011F00001290AD00121804601764CF25039484637
:10120000FFF740FB020003D02FE00220BDE8F0878B
:101210004FF0FF3038602068174D012801D0A668D4
:101220001CE0207C6168FFF791FA4846FFF72AFB33
:101230000246286820F00400286014E0217C304633
:10124000FFF732FA4846FFF71DFB0200286820F03E
:101250007A00286001D03E6005E0761CD4E90210D7
:101260000844B042EAD8FFF747FA002188F818107E
:101270001046CBE720050220103C024003480168DD
:1012800041F000410160002070470000103C024026
:101290002DE9F0471B4E05461446307E1F46894611
:1012A000012808D0012030764CF250384046FFF734
:1012B000E9FA18B114E00220BDE8F0879DB1012DD4
:1012C00016D0022D19D022463B464846FFF762FA57
:1012D0004046FFF7D7FA0C490A6822F001020A607B
:1012E00000213176E8E7E1B24846FFF743FAEFE73D
:1012F000A1B24846FFF764FAEAE721464846FFF7FD
:1013000071FAE5E720050220103C02400749002061
:101310000A68002A09DA054A054B0C3A1360054BA6
:1013200013600968002900DA01207047103C024070
:1013300023016745AB89EFCD70470000044910B524
:101340000A68024202D00860FFF7F6FF10BD0000F5
:10135000143C01402DE9F84FDFF8ACA10022012434
:101360000AF1040B03254FF00F090BF1040E00BF27
:101370000B6804FA02F63340B3426ED10F7907F0DE
:101380000307012F01D0022F16D187684FEA4208C8
:1013900005FA08FC27EA0C07D1F80CC00CFA08FC87
:1013A0004CEA070CC0F808C04768B7430E79C6F38B
:1013B000001696403E4346600E79F643B6070AD0C3
:1013C000C6684FEA420C05FA0CF7BE438F6807FA6D
:1013D0000CF73743C7600E7906F00306022E10D1D2
:1013E000D60800EB8608D8F8206057074FEAD76C7C
:1013F00009FA0CF7BE430F6907FA0CF73743C8F830
:10140000207006684FEA420C05FA0CF7BE430F79CC
:1014100007F0030707FA0CF7374307604E6816F426
:10142000403F6BD0394E376847F4804737603668A5
:1014300022F0030706F480460096354E07EB060CB3
:10144000DCF8086897074FEA177809FA08F7BE43EF
:10145000304FB84202D100271FE04FE02E4FB84274
:1014600001D1012719E02D4FB84201D1022714E024
:101470002B4FB84201D103270FE02A4FB84201D1C8
:1014800004270AE0284FB84201D1052705E0274F7D
:10149000B84201D1062700E0072707FA08F73743CB
:1014A000CCF80878DAF800605746D1F804C09E43BB
:1014B0005FEACC3C00D51E433E60DBF800605F462F
:1014C000D1F804C09E435FEA8C3C00D51E433E60C9
:1014D000DEF800607746D1F804C09E435FEACC2C6A
:1014E00000D51E433E60084F0C373E68D1F804C05B
:1014F0009E435FEA8C2C00D51E433E60521C102A8E
:10150000FFF436AFBDE8F88F003C0140443802409C
:101510000030014000000240000402400008024088
:10152000000C02400010024000140240001802406B
:101530000AB1816170470904FBE700000148806837
:1015400070470000EC0400200248816802781144D2
:1015500081607047EC0400200B4810B5016841F42D
:1015600000710160016841F480610160016841F42B
:1015700080710160032000F06FF8002000F006F891
:1015800000F024F8002010BD003C024070B50D4D65
:1015900004464FF47A712878B1FBF0F00A490968E3
:1015A000B1FBF0F000F0F4FA48B9102C07D2002299
:1015B0002146501E00F030F800206C6070BD012004
:1015C00070BD0000EC040020F80400200A4808B5B3
:1015D000016841F480410160006800F4804000909F
:1015E0000548001F016841F080510160006800F06B
:1015F0008050009008BD000044380240002809DBFC
:1016000000F01F02012191404009800000F1E0201C
:10161000C0F8001170470000F0B40E4B1B680C4678
:10162000C3F30223C3F10705042D00D90425191DB6
:10163000072901D2002300E0DB1E012606FA05F18E
:10164000491E214099409E40761E16403143F0BC11
:1016500001F0E5B80CED00E0064900F0070208686B
:101660004FF6FF03184040EA0220034A1043086087
:10167000704700000CED00E00000FA052DE9F0478E
:101680000E46050065D0DFF81481D8F80000F7B2E7
:1016900000F00700B04207D288F80070D8F80000C8
:1016A00000F00700B04254D128683D4C810712D5A4
:1016B000400703D5206840F4E050206028780007F8
:1016C00003D5206840F4604020602068A96820F0BD
:1016D000F000084320602878C0072DD030496868A2
:1016E0000839012812D0022813D0032811D0096824
:1016F000890700292DDA216821F0030101432160C7
:10170000FFF71CFF814641F2883A0EE00968890321
:10171000EFE709688901ECE7FFF710FFA0EB09018B
:10172000514502D90320BDE8F0872068696800F0C0
:101730000C00B0EB810FEFD1D8F80010404601F05B
:101740000701B14207D90770006800F00700B042F6
:1017500001D00120E7E72878400705D52068E9682F
:1017600020F4E050084320602878000706D5206860
:10177000296920F4604040EAC100206000F018F8B8
:101780002168084AC1F30311515CC840064908604A
:1017900006480068FFF7FAFE0020C4E7003C02405C
:1017A00008380240FA290008F8040020F00400205C
:1017B000154810B5006810F00C02144813D0411001
:1017C000042A0FD0082A0ED10F4C241F2268236848
:1017D00002F03F025B0207D52068C0F38810A0FB2F
:1017E000010106E0084610BD2168C1F38811A1FB84
:1017F00000010023FEF70EFD2168C1F30141491CE1
:101800004900B0FBF1F010BD083802400024F4009C
:101810002DE9F84F04006ED02078DFF86093C00700
:10182000A9F104054AD009F104000168C1F381015E
:10183000012908D00068C0F3810002280AD1D9F834
:101840000000400206D52868800337D5606800286C
:10185000E1D033E06068B0F5803F10D0B0F5A02F44
:10186000286810D020F480302860286820F4802078
:1018700028606068A8B1FFF761FE06460DE02868A1
:1018800040F48030F4E740F480202860F7E700BFA0
:10189000FFF754FE801B642873D828688003F7D5AF
:1018A0000CE0FFF74BFE064605E000BFFFF746FEE3
:1018B000801B6428F0D828688003F7D42078DFF8EC
:1018C000C08280074FF0000A3ED5AC48001D016879
:1018D00011F00C0F08D00068C0F3810002280BD172
:1018E000D9F80000400207D42868800716D5E068C0
:1018F000012800D112E03CE1E068B8B10120C8F84D
:101900000000FFF71BFE064605E000BFFFF716FECE
:10191000801B0228C0D828688007F7D5286821696D
:1019200020F0F80040EAC10028600DE0C8F800A0EF
:10193000FFF704FE064604E0FFF700FE801B0228C6
:101940001FD828688007F7D42078000722D58B4E4F
:101950008C486169703671B101210160FFF7EEFDBD
:10196000074604E0FFF7EAFDC01B022809D83068EB
:101970008007F7D50EE0C0F800A0FFF7DFFD0746AF
:1019800005E082E0FFF7DAFDC01B02287DD8306851
:101990008007F7D42078400768D5DFF8E0B100274A
:1019A0000BF13C0BDBF80000C0000BD4DBF800109F
:1019B00041F08051CBF80010DBF80000012700F067
:1019C00080500090704E3068C00510D4306840F4EC
:1019D00080703060FFF7B2FD009005E0FFF7AEFDCC
:1019E0000099401A022850D83068C005F6D5634ED9
:1019F000A0686C3601280FD00528306810D020F080
:101A000001003060306820F004003060A068B8B198
:101A1000FFF794FD00900FE0306840F00100F4E71C
:101A200040F004003060F7E7FFF788FD0099411AA5
:101A300041F28830814268D830688007F4D50EE0E2
:101A4000FFF77CFD009007E0FFF778FD0099411A51
:101A500041F28830814258D830688007F4D42FB1E1
:101A6000DBF8001021F08051CBF80010A069D8B34A
:101A70004249091D0968C1F3810102294CD002289D
:101A8000504607D0C8F8600000E03EE0FFF756FD82
:101A900004463DE04746C8F86000FFF74FFD0646A4
:101AA00005E000BFFFF74AFD801B02282DD82868FB
:101AB0008001F7D4F4E907010843E168334A490893
:101AC00002EB0141A26841EA82110843217C40EA0D
:101AD0000160217D40EA0171C9F8001001203866DB
:101AE000FFF72CFD044606E045E000BFFFF726FDAA
:101AF000001B022809D828688001F7D53BE000BF09
:101B0000FFF71CFD001B022802D90320BDE8F88F57
:101B100028688001F4D42EE00128F7D0D9F800001D
:101B2000E26900F48001914223D1226A00F03F0172
:101B300091421ED147F6C071626A0140B1EB821F2B
:101B400017D1A26A4FF0FF3300F4403103EB520289
:101B5000B1EB024F0DD194F82C2000F07061B1EB85
:101B6000026F06D194F8301000F0E040B0EB017F36
:101B700001D00120CAE70020C8E700000438024075
:101B800000004742800E4742007000400000FFFF07
:101B900010B5401EB0F1807F01D3012010BD4FF081
:101BA000E02460610F21601700F039FE0020A06181
:101BB00007202061002010BDFEE700002DE9F04164
:101BC000164F054600244FF480684FF4006600224B
:101BD00031463846FFF7ACFC280601D5012200E06B
:101BE000002241463846FFF7A3FC00F01BFD01220E
:101BF00031463846FFF79CFC00F014FD6806641C73
:101C0000050EE4B2082CE2D3002231463846FFF735
:101C10008FFCBDE8F04100F005BD00000018024057
:101C200070B501220E4D940221462846FFF780FC34
:101C30000122D60231462846FFF77AFC00F0F2FC7A
:101C4000002221462846FFF773FC00F0EBFC00223F
:101C500031462846FFF76CFCBDE8704000F0E2BC5E
:101C60000018024070B5104D4FF4806400222146E8
:101C70002846FFF75DFC6600002231462846FFF744
:101C800057FC00F0CFFC012231462846FFF750FCFC
:101C900000F0C8FC012221462846FFF749FCBDE8B8
:101CA000704000F0BFBC0000001802402DE9F04178
:101CB000114E00244FF48065224629463046FFF736
:101CC00037FC00F0AFFC0122D70239463046FFF75F
:101CD0002FFC00F0A7FC002239463046FFF728FC15
:101CE00000F0A0FC012229463046FFF721FC00F05D
:101CF00099FC2046BDE8F081001802400168084ABE
:101D00001140B1F1005F0AD172B6026805498A63D9
:101D1000406848630863116881F30888004770478A
:101D20000000FE2F000000200F4810B50D49016093
:101D30005021416000214FF400228160C0E903126C
:101D40004FF4E0024261017641768176C1760177F7
:101D50004177FEF7E6FF002803D0BDE81040FEF70C
:101D6000A0BC10BD00640040AC0502200F4810B5B7
:101D70000D4901605021416000214FF40022816033
:101D8000C0E903124FF4E0024261017641768176A8
:101D9000C17601774177FEF7C4FF002803D0BDE884
:101DA0001040FEF77EBC10BD00680040D405022044
:101DB0000F4810B50D4901605021416000214FF4DA
:101DC00000228160C0E903124FF4E0024261017613
:101DD00041768176C17601774177FEF7A2FF002830
:101DE00003D0BDE81040FEF75CBC10BD006C0040A5
:101DF000FC0502202DE9F04F87B014216846FEF75C
:101E000041FA9F480024016841F010010160016817
:101E100001F010010591016841F0040101600168C1
:101E200001F004010591016841F0200101600168A1
:101E300001F020010591016841F080010160016815
:101E400001F080010591016841F001010160016824
:101E500001F001010591016841F002010160016892
:101E600001F002010591016841F040010160016843
:101E700001F040010591016841F00801016000682E
:101E8000DFF800A200F008000590002241F23801BE
:101E90005046FFF74DFBDFF8F0810022B0214046AD
:101EA000FFF746FBDFF8E4B100229F215846FFF719
:101EB0003FFB00224FF46E417548FFF739FB0122CA
:101EC00011037348FFF734FB012210217148FFF71B
:101ED0002FFB00224FF4F0716E48FFF729FB4FF6FD
:101EE0007F600325CDE90005694602946A48FFF743
:101EF00031FA4EF60770CDE9000569460294504666
:101F0000FFF728FA4FF6FF70CDE900056946029405
:101F10006248FFF71FFA08270126CDE900766946D7
:101F20005046CDE90245FFF715FA41F60F60CDE9BD
:101F30000005694602944046FFF70CFA1020CDE9EF
:101F4000000669464046CDE90245FFF703FAA020A6
:101F5000CDE90006CDE9024669464046FFF7FAF9A9
:101F60004020CDE90004694640460294FFF7F2F9AB
:101F700041F230000090CDE9016469465046039477
:101F8000FFF7E8F9CDE90054694642480294FFF7AB
:101F9000E1F94CF20420CDE90005694602943D4880
:101FA000FFF7D8F9A8024FF00208CDE9000802AA0D
:101FB0004FF0070982E8300269463648FFF7CAF950
:101FC0004FF47F40CDE90005694602945846FFF77B
:101FD000C1F94FF4FE70CDE90005694602942C4822
:101FE000FFF7B8F9C020CDE9000802AA694682E8E7
:101FF000B0005046FFF7AEF99F200090CDE9016494
:10200000694658460394FFF7A5F96020CDE900081A
:1020100002AA694682E830025846FFF79BF94FF45E
:102020007E400090CDE90164694619480394FFF7AA
:1020300091F94FF404100097CDE901046946154861
:10204000FFF788F94FF488700090CDE90164694684
:1020500010480394FFF77EF9E020CDE900066946B9
:102060000C48CDE90245FFF775F900220821092047
:10207000FFF7D2FA0920FFF7C1FA07B0BDE8F08FE9
:10208000303802400008024000000240000C0240CC
:1020900000180240000402400010024000140240F8
:1020A00010B500F0C5FAFEF78DF9FEF765F90349A2
:1020B0000148886010BD00000C05002000000020D1
:1020C000642662B6FEF77EF9002414B1142C37D1D1
:1020D00011E0FEF777F9FCA220210120FEF7A6F916
:1020E000FCA210210420FEF7A1F9FEA22021072066
:1020F000FEF79CF924E0FEF765F9FD4A1021032064
:1021000000F0ACFBFA4A20212032032000F0A6FBAD
:10211000F74A30214032032000F0A0FBF44A40216E
:102120006032032000F09AFBF14A502180320320F4
:1021300000F094FBEE4A6021A032032000F08EFBF9
:102140006420FFF73DF8641C322CBEDBE94C6425AB
:10215000DFF8A493207847F23058012803D0607844
:10216000012873D041E2FEF72DF9E4A220210120DD
:10217000FEF75CF9E4A228210320FEF757F942F2AA
:10218000107721E0FFF7DAF92064206CE16B8842D8
:1021900003D3206CE16B401A03E0E06B216CC04379
:1021A00008446064606CB8420ED9FEF70BF9D8A2FF
:1021B00010210120FEF73AF94046FFF701F800F040
:1021C0001DFB4846FFF79AFDA0780128DAD1D4A27A
:1021D0001821FEF72BF951E0A06942F21071484333
:1021E0006169B0FBF1F02061B0FBF5F0C2B22821CB
:1021F0000320FEF7FBF82069B0FBF5F105FB1102A7
:1022000040210320FEF7F2F86420FEF7D9FFA06911
:102210006169083888420ED9FEF7D4F8BCA21021B3
:102220000120FEF703F94046FEF7CAFF00F0E6FA88
:102230004846FFF763FDFFF781F92064206CE16BEE
:10224000884204D3216CE06B081A04E019E0E06BCB
:10225000216CC04308446064606CB8420ED9FEF73C
:10226000B1F8ABA210210120FEF7E0F84046FEF7DE
:10227000A7FF00F0C3FA4846FFF740FD6078012849
:10228000AAD1A069616988425AD12079E17888424F
:1022900032D1FEF797F8A5A210210120FEF7C6F86B
:1022A000A6A228210320FEF7C1F8A64842F2107129
:1022B00000884843A169B0FBF1F06062B0FBF5F023
:1022C000C2B228210520FEF791F89FA238210520EF
:1022D000FEF7ACF8606AB0FBF5F105FB1102402196
:1022E0000520FEF783F899A250210520FEF79EF8FD
:1022F0003220FEF765FF0EE0FEF764F894A210218D
:102300000120FEF793F84046FEF75AFF00F076FAF8
:102310004846FFF7F3FC72B6FEF7F8FF8F490868EE
:1023200020F4806008608E480027022204230760A2
:10233000C0E902230261894AF3200C3210601FE0D9
:10234000FEF740F872A2DAE7761E16D1FEF73AF8E9
:1023500084A228210320FEF769F847F23050FEF7E7
:102360002FFF7E48016841F480610160FEF786FF1F
:1023700000F044FA4846FFF7C1FC6420FEF720FF56
:102380005C4977482031FEF72DFF08B1002EDBD1E4
:10239000DFF8DC816DA269210520C4F80C80FEF70E
:1023A00045F8A069DFF8CCA180074FF000067CD08B
:1023B0004FF0010B40E0A16A514505D313E000BF87
:1023C0004FF47A70FEF7FCFEE0680023A16A026811
:1023D0000220FEF75DFF0028F2D1E068001DE060FA
:1023E000A06A001DA06249F64040A1697043B0FB9D
:1023F000F1F06062E16A411A11291CD9B0FBF5F1D4
:10240000B0FBF5F2A164E06205FB12002065E06C10
:1024100081420AD0CAB2E16428210520FDF7E6FF17
:1024200049A238210520FEF701F894F850204021F8
:102430000520FDF7DBFF761CA1690BEB9100B04294
:10244000B9D89FE0A16A514513D24FF47A7BE06876
:102450000023A16A02680220FEF71AFF18B158464D
:10246000FEF7AEFEF3E7E068001DE060A06A001D25
:10247000A06249F64040A1697043B0FBF1F0606290
:10248000E16A411A11291ED9B0FBF5F1B0FBF5F252
:10249000A164E06205FB12002065E06C81420CD073
:1024A000CAB2E1642821052000E066E0FDF79EFF46
:1024B00025A238210520FDF7B9FF94F850204021CE
:1024C0000520FDF793FF57E0BBB6D3ADCAB9D3C320
:1024D00000000000C9BDB6ABBFF3BBFABCAFCDC5B1
:1024E00000000000B5E7BFD8CFB5CDB300000000B5
:1024F0003A2900080000002000800008B3CCD0F288
:10250000BDD3CAD50000000058582E5858250000E9
:10251000B3CCD0F2BDD3CAD5CAA7B0DC000000004E
:10252000B3CCD0F2BDD3CAD5D6D00000B3CCD0F254
:10253000BDD3CAD5B3C9B9A600000000C9D5C2BC75
:10254000D6D00000E80400202E0000002500000086
:10255000B3CCD0F2CAA7B0DC00000000003C0240BF
:102560000C050220C9D5C2BCD6D0CAA7B0DC000079
:102570000C050020FFFF0308761CA069B6EB900F46
:10258000FFF460AF1E48016841F480610160FEF70E
:1025900075FE62B6A2691B49484600F0D1F80020DA
:1025A0004146E76104E00A5C401C3A44D7B2E77058
:1025B000A2699042F7D3E7612079E178884209D196
:1025C000FDF700FF10A228210320FDF72FFF42F2A4
:1025D000107008E0FDF7F6FE0EA228210320FDF79B
:1025E00025FF47F23050FEF7EBFD00F007F94846B3
:1025F000FFF784FB4FF47A742046FEF7E1FDFBE71A
:10260000003C02400C050020C9D5C2BCB3C9B9A624
:1026100000000000C9D5C2BCCAA7B0DC00000000A1
:10262000FEE7FEE70020401CC0B22328FBD3704722
:1026300010B500224FF400712448FEF779FF244CB6
:10264000002280212046FEF773FF282000F070F85A
:10265000012280212046FEF76BFF282000F068F859
:10266000AE2000F037F8D52000F034F8D02000F08C
:1026700031F8A82000F02EF83F2000F02BF8402081
:1026800000F028F8A12000F025F8C82000F022F87A
:10269000DA2000F01FF8122000F01CF8D92000F01A
:1026A00019F8822000F016F8DB2000F013F834202F
:1026B00000F010F8502000F03BF8AF2000F00AF8CE
:1026C000BDE81040C82000F033B8000000180240F8
:1026D000000C024010B50446FFF7A2FA7A20FFF77B
:1026E0006DFAFFF7E3FA0020FFF768FAFFF7DEFA6A
:1026F0002046FFF763FAFFF7D9FABDE81040FFF76D
:10270000B1BA10B50446FFF78BFA7A20FFF756FAF4
:10271000FFF7CCFA4020FFF751FAFFF7C7FA20463F
:10272000FFF74CFAFFF7C2FABDE81040FFF79ABA7C
:10273000002100E0491C8142FCDB7047704700002B
:1027400010B5002304E000BF10F8014BCC545B1C13
:102750009342F9D310BD7047FEF7F6BE30B593B083
:1027600034216846FDF78EFD14210DA8FDF78AFD82
:102770001C480025016841F080510160006800F0AC
:10278000805012901848016841F44041016000688F
:10279000022400F4404012900120009000040190B7
:1027A0008001CDE9064008200890C020CDE9090449
:1027B0000B9468460C94FFF72BF808B172B6FEE74D
:1027C0000DA90F2081E831004FF48050CDE91005AC
:1027D00003210DA8FEF752FF002801D072B6FEE7D4
:1027E00013B030BD4038024000700040024801681C
:1027F00041F470010160704788ED00E010B51021D0
:102800000548FEF709F90448FEF7A2FCFFF710FFA0
:10281000FDF7D8FD72B610BDD4050220FEE709070A
:10282000090E002804DB00F1E02080F80014704756
:1028300000F00F0000F1E02080F8141D704702E066
:1028400008C8121F08C1002AFAD17047704700203B
:1028500001E001C1121F002AFBD170472DE9F041B0
:1028600016468846074600243819C0B2414600F093
:1028700041F800253078FFF744FF6D1C761C102DC1
:10288000F8DB641C022CEFDBBDE8F0812DE9F041A0
:1028900016468846074600243819C0B2414600F063
:1028A00029F800253078FFF72CFF6D1CEDB2761C5F
:1028B000102DF7D3641CE4B2022CEDD3BDE8F081F7
:1028C0002DE9F04116468846074600243819C0B263
:1028D000414600F00FF800253078FFF712FF6D1C1D
:1028E000EDB2761C082DF7D3641CE4B2022CEDD3B4
:1028F000BDE8F08110B5491EAF30CCB2C0B2FFF7D1
:10290000E9FE102000EB1410FFF7E4FE04F00F00C6
:10291000BDE81040FFF7DEBEFEF71EFEFFF71EFF0C
:10292000FFF768FAFFF700FAFFF720FAFFF740FA1F
:10293000FFF7B6FBFFF7C4FBFCE700000000000058
:10294000040EFCF8000000800000003E32323236F7
:102950003C3C3711103838190E000000000060E0D0
:10296000607C6623381000000000000040E0462D27
:102970000C84867F0E0330300000000000B0703001
:10298000100000C0E0D86463632010080E1F12120C
:102990009E4060300C07000000000020A0F07E3256
:1029A0001000E0702020F03000000806033F2101F5
:1029B0000806010000000F080805000030F81C039D
:1029C00011F0ACFA795C00000000001010514E4884
:1029D0008B8A4F3D05252404000000E0BC6C104CA0
:1029E000E6E6FEFE3606FE80000000031F382432B5
:1029F00031303F1360201F00000000000000000085
:102A00000000010203040607080900002C2A000840
:102A100000000020FC040000FC020008D02D00088B
:102A2000FC0400202C0502004E2800080129128019
:102A300002290827E010080810E0370F10202010A6
:102A40000F541010F82620203F20201B7008012270
:102A5000F01F30282422213008190F2388702F18E6
:102A6000202121221C6D2B40303110080605242422
:102A70003F24241EF8888888087F2F1920202011E1
:102A80000E60348888901B0F11111A1F38193F43AC
:102A90006818433E011A702E29504B1C22501AF020
:102AA0006029901F01122222110F0F2CF080602F3D
:102AB000A7310C031E211E1A308C31172424A4FECA
:102AC00023222B3E2201223E180C080601FF01069C
:102AD000404949497F043241100EFC040404141596
:102AE000569454341404041440300F1F0101014162
:102AF000817F061B0503EE100E10FF105044546535
:102B0000C6446454444018100444827F0182824ABF
:102B1000562322524E82023F2112FF180A4020D82B
:102B2000171010F01010C81C0402FFF43008211612
:102B3000081621408019162944190152F01A0F7005
:102B40002B04FF05520F1BF8880110090808FF0825
:102B5000090AC8081480601F2C10201F4115182670
:102B600041F819EE2AF8F239421941300F103010AD
:102B70001F088848300E014080403F6C40301E6086
:102B8000197E11201081814121110D0301030D11C6
:102B9000214181818EFE02FA02FEA08F8047300F14
:102BA0001067A012F014FF2010200988884F5824C5
:102BB0005484E4101080700F10208242320E020202
:102BC0003E4242725D808082920115FE80808010BC
:102BD00010404022241048807F04081824224040DE
:102BE000181F081868808068180820302C03032CF0
:102BF000302004244484649C40300FC808082818FE
:102C0000B0180D080601824C201806010618207025
:102C100025404042CC1CFC0402042B04FCC0100ED6
:102C2000201F20404F4442407F42444340180B80C5
:102C300060F80704E4242424FF0433E40412FF189A
:102C40000880814529112F41CF32801BFE22014986
:102C500005311D80601F0201577F020242827F42C0
:102C6000F07AFF0A111B3F20013905392038090885
:102C7000884828180FE8080131200E201109054165
:102C8000817F010105091120270484E45C44C42DDF
:102C9000F808090E211F02017F10103F66711710FE
:102CA00010D0FF90101AFE74297F111B04036C3A98
:102CB000831F153F404078180F201008FC03202088
:102CC000107F88888482E0201C040405041AFF0415
:102CD000290129B113F8071E0424242526E1120432
:102CE0004A01AC2BF949011AF96010089453321EBD
:102CF000325210567E4242427E3AFF1C3B4949D432
:102D0000100908CC4A49484ACC1869611EFF1212C2
:102D10005292DA5A7E10111BF888012AFF0552F8E8
:102D20002A1FE9192E1E88889F80F0C0100E10FF00
:102D30009020984828090E2848A818150242817F3B
:102D40002B40406D19043240180B22322AA6A26291
:102D5000211109819C21200E4222130B42827E0206
:102D6000020A122346162030AC6330100A88C8A825
:102D7000998E88A8C888200A2267221212804030C3
:102D80000F153F404071180B20180CFF5554545438
:102D9000FB5605135404101188888B4B29291109FF
:102DA000FD11294949898988180AFF01011111116A
:102DB0009161FE061A01D3180B7F404844424948EE
:102DC000504F400119C80127299C82101324F40098
:04000005080001D915
:00000001FF
